:020000040800F2
:10000000B809002091010008CD240008E91D00086E
:1000100000000000000000000000000000000000E0
:10002000000000000000000000000000A9310008EE
:100030000000000000000000C92D0008AB310008DE
:10004000A301000800000000A3010008A3010008AC
:10005000A3010008A3010008A30100085905000836
:1000600000000000A3010008A3010008A30100088C
:10007000A3010008A3010008A3010008000000007C
:10008000A3010008A301000800000000A30100086C
:10009000A3010008A3010008A3010008ED1D00084A
:1000A000A3010008A3010008A3010008A3010008A0
:1000B000D536000800F002F800F03EF80CA030C879
:1000C000083824182D18A246671EAB4654465D46D4
:1000D000AC4201D100F030F87E460F3E0FCCB64660
:1000E0000126334200D0FB1AA246AB4633431847E1
:1000F0007C4000009C400000103A02D378C878C1D0
:10010000FAD8520701D330C830C101D504680C6059
:10011000704700000023002400250026103A01D378
:1001200078C1FBD8520700D330C100D50B607047AF
:100130001FB51FBD10B510BD00F018F91146FFF72F
:10014000F7FF03F035FB00F030F903B4FFF7F2FFDF
:1001500003BC03F023FB000070B505460C461646B1
:1001600002E00FCC0FC5103E102EFAD2082E02D39B
:1001700003CC03C5083E042E07D301CC01C5361FAE
:1001800003E021782970641C6D1C761EF9D270BDC5
:100190000748804707480047FEE7FEE7FEE7FEE71F
:1001A000FEE7FEE704480549054A064B7047000094
:1001B000FD310008B5000008B8030020B809002090
:1001C000B8050020B8050020704701E004C0091FF1
:1001D0000429FBD28B0701D50280801CC90700D0FF
:1001E0000270704700290BD0C30702D00270401C78
:1001F000491E022904D3830702D50280801C891E70
:10020000E3E70022EEE70022DFE7002203098B424A
:100210002CD3030A8B4211D300239C464EE00346A5
:100220000B433CD4002243088B4231D303098B4259
:100230001CD3030A8B4201D394463FE0C3098B428F
:1002400001D3CB01C01A524183098B4201D38B01E8
:10025000C01A524143098B4201D34B01C01A52418B
:1002600003098B4201D30B01C01A5241C3088B42D0
:1002700001D3CB00C01A524183088B4201D38B00BB
:10028000C01A524143088B4201D34B00C01A52415D
:10029000411A00D201465241104670475DE0CA0F34
:1002A00000D04942031000D34042534000229C46F4
:1002B00003098B422DD3030A8B4212D3FC228901FE
:1002C00012BA030A8B420CD3890192118B4208D3D4
:1002D000890192118B4204D389013AD0921100E036
:1002E0008909C3098B4201D3CB01C01A524183094A
:1002F0008B4201D38B01C01A524143098B4201D377
:100300004B01C01A524103098B4201D30B01C01AA1
:100310005241C3088B4201D3CB00C01A524183081B
:100320008B4201D38B00C01A5241D9D243088B4271
:1003300001D34B00C01A5241411A00D20146634614
:1003400052415B10104601D34042002B00D5494278
:10035000704763465B1000D3404201B50020C046A1
:10036000C04602BD7047704770477047754600F041
:1003700023F8AE46050069465346C008C0008546CE
:1003800018B020B5FFF70EFF60BC00274908B6463D
:100390000026C0C5C0C5C0C5C0C5C0C5C0C5C0C594
:1003A000C0C5403D49008D4670470446C046C04622
:1003B0002046FFF7CAFE000000487047580300209F
:1003C00010B586B0044600BF002C0FD100BF2148F5
:1003D00040690121490408431E49486108464069B3
:1003E000012149040840009000BF1FE0012C0DD1FD
:1003F00000BF18484069A1050843164948610846EE
:100400004069A1050840009000BF0FE0022C0DD10B
:1004100000BF10484069610508430E49486108461D
:10042000406961050840009000BF00BF00BF600048
:100430000949085A019001200290002003900320EE
:100440000490A100054A505801A900F077F906B0C0
:1004500010BD0000001002403639000804000020E2
:1004600010B504466200044B995AA200034B9858F9
:10047000012200F068FA10BD36390008040000209F
:1004800010B504466200044B995AA200034B9858D9
:1004900000F055FA10BD00003639000804000020B5
:1004A00030B587B004460D4600BF002C0FD100BF09
:1004B00024484069012189040843224948610846CB
:1004C0004069012189040840019000BF0FE0012C20
:1004D0000DD100BF1B484069A10408431949486178
:1004E00008464069A1040840019000BF00BF00BF5A
:1004F00060001549085A02900020049003200590DE
:10050000002D07D100200390A100104A505802A9E5
:1005100000F014F9012D13D10D480390A1000B4AEE
:10052000505802A900F00AF90A49095D48B20022B0
:10053000032100F0AFFA0749095D48B200F09EFAC6
:1005400007B030BD001002403C3900081000002008
:10055000000021104439000810B50120000300F00C
:10056000DDF80120400300F0D9F810BD00BFFEE720
:100570000120FFF775FF06E00120FFF781FF7D20D6
:10058000C00000F02DF8F7E770B5044600252120E3
:10059000005D022803D00420A06301251EE020682E
:1005A00000680E21884321680860206800684008C0
:1005B0004000216808600120216C8840E16B4860A0
:1005C00001212120015500BF00212020015500BF3D
:1005D000606B002802D02046616B8847284670BDBA
:1005E00031B5002400F0B6F9044600BF00F0B2F9BE
:1005F000001B00998842F9D338BD0000F0B50246CF
:100600000B460020002100246FE0012585401D409D
:100610002946002968D0156847000326BE40B54327
:100620001560C508AE0015462035AD594607F70ED2
:100630000F26BE40B543C608B60017462037BD5149
:10064000956847000326BE40B5439560556801266E
:100650008640B5435560D56847000326BE40B54384
:10066000D560244D8608B600AC5985072E0F0F259E
:10067000B5402C400925ED06AA4201D100250FE026
:100680001D4DAA4201D101250AE01C4DAA4201D10B
:10069000022505E01A4DAA4201D1032500E00525F7
:1006A0008607360FB540A5421ED185072E0F0F25B0
:1006B000B5402C460F4D8608B600AD59A5430D4EEA
:1006C0008708BF00F5510F4D2D688D430D4E3560E5
:1006D00035466D688D4375603546AD688D43B560B0
:1006E0003546ED688D43F560401C1D46C540002D24
:1006F0008BD1F0BD0800014000040048000800480C
:10070000000C00480004014001210903884202D185
:100710000121014A116070472800002010B50446ED
:10072000054840692040002804D003484461204621
:10073000FFF7EAFF10BD00000004014078B5034652
:10074000002200240020DEE0012696400D6835409E
:100750002C46002C7ED04D68022D02D04D68122D03
:1007600015D1D508AE001D462035A8595507EE0E07
:100770000F25B5400646AE4330465607F60E0D69C6
:10078000B5402843D508AD001E4620367051186884
:1007900056000325B5400646AE4330460D79AD07F9
:1007A000AD0F5600B540284318604D68012D08D0A4
:1007B0004D68022D05D04D68112D02D04D68122DC7
:1007C00018D1986856000325B5400646AE4330461A
:1007D0005600CD68B540284398605868012595407B
:1007E0000646AE43304610264D6835402D099540EB
:1007F00028435860D86856000325B5400646AE43E6
:10080000304656008D68B5402843D860012636072B
:100810004D683540B54275D100BF3E4DAD690126EA
:1008200035433C4EB5613546AD69ED07ED0F00959A
:1008300000BF00BF384D9608B600A85995072E0F87
:100840000F25B5400646AE4330460925ED06AB42BE
:1008500003D100E056E000250FE0304DAB4201D15E
:1008600001250AE02E4DAB4201D1022505E02D4DB8
:10087000AB4201D1032500E005259607360FB540B0
:100880002843254D9608B600A851274D28680546EF
:10089000A5432846012636044D683540B54202D1AD
:1008A000054625432846204D286068680546A5432F
:1008B0002846012676044D683540B54202D10546EA
:1008C00025432846184D6860A8680546A543284674
:1008D000012636054D683540B54202D1054625430F
:1008E0002846114DA860E8680546A543284601261C
:1008F00076054D683540B54202D105462543284668
:10090000094DE860521C0D68D540002D00D01BE752
:1009100078BD0000001002400800014000040048BB
:1009200000080048000C004800040140024613691A
:100930000B40002B01D0012000E0002070474269ED
:100940004A4042617047002A01D0816100E0816223
:100950007047000001480068704700002C0000202C
:100960007047704770B5044620688569206806683E
:10097000FF200130284000280AD080203040002885
:1009800006D0606C01210843606408022168C861D8
:1009900001208002284000280AD080203040002812
:1009A00006D0606C082108436064C8012168C861F2
:1009B00001204002284000280AD080203040002832
:1009C00006D0606C02210843606408022168C86197
:1009D000606C0B210840002803D0616C204601F0B8
:1009E000F1FA70BD70B50446206885692068066814
:1009F000606B002804D0324629462046636B984736
:100A000070BD70477047704770470000024800682B
:100A1000401C0149086070472C00002010B50648B2
:100A200000681021084304490860032000F006F81C
:100A300000F017F8002010BD0020024070B50446F9
:100A400000F0FCF806467D21C900FFF7DEFB0546F5
:100A500000F05EFF00222146501E00F01BF800202F
:100A600070BD704700BFC206D20E01219140024AFC
:100A7000116000BF7047000080E100E000BFC206C7
:100A8000D20E01219140024A116000BF7047000060
:100A900000E100E070B504460D46164629462046A2
:100AA00001F03CFF70BD000070B504460D46002605
:100AB0005D480068C007C00FA8420ED25A480068BF
:100AC0004008400028435849086008460068C007AD
:100AD000C00FA84201D0012070BD0221206808404B
:100AE000022807D151484068F0218843A168084393
:100AF0004E4948602078C007C00F00285FD060686A
:100B0000012808D14948006801214904084000280B
:100B100015D10120E0E76068022808D14348006849
:100B2000012149060840002809D10120D4E73F48A7
:100B3000006802210840002801D10120CCE73B4891
:100B40004068800880006168084338494860FFF7C2
:100B500001FF0646606801280FD107E0FFF7FAFEA3
:100B6000801B3349884201D90320B5E72F484068EC
:100B70000C2108400428F1D121E0606802280FD13F
:100B800007E0FFF7E7FE801B2949884201D90320CF
:100B9000A2E7264840680C2108400828F1D10EE061
:100BA00007E0FFF7D7FE801B2149884201D90320C7
:100BB00092E71E4840680C2108400028F1D11A48ED
:100BC0000068C007C00FA8420ED917480068400847
:100BD000400028431449086008460068C007C00F59
:100BE000A84201D0012077E70421206808400428AA
:100BF00008D10E484068072109028843E16808438C
:100C00000A49486000F032F808494968F02211406A
:100C10000909084A515CC840074908600320FFF7EA
:100C20000DFF002058E700000020024000100240A5
:100C3000881300001E3900080000002001480068E9
:100C4000704700000000002000B5FFF7F7FF0549DE
:100C50004968072212021140090A034A515CC84040
:100C600000BD0000001002402E390008F0B589B028
:100C700024A001460EC9C06805AC0EC4089025A08A
:100C800001460EC9C06801AC0EC4049000240027C0
:100C90000025002600200090224844680C202040B7
:100CA000002827D0042802D0082822D102E01E48BC
:100CB000009022E00F2080042040800C05A90E5CEB
:100CC0001848C06A0007000F01A90F5C012000044A
:100CD000204001210904884206D139461248FFF715
:100CE00094FA7043054602E01048354645430095A6
:100CF00003E000BF0C48009000BF00BF009809B09F
:100D0000F0BD000002030405060708090A0B0C0DDC
:100D10000E0F10100102030405060708090A0B0C48
:100D20000D0E0F100010024000127A0000093D0065
:100D3000F8B5044600252078C007C00F002871D000
:100D4000F94840680C21084004280BD0F648406858
:100D50000840082812D1F4484068012109040840DD
:100D600088420BD1F048006801214904084000285E
:100D70006BD06068002868D10120F8BD00BF6068B2
:100D8000012807D1E8480068012109040843E64921
:100D9000086031E0606800280ED1E3480068012156
:100DA00009048843E0490860084600680121890475
:100DB0008843DD4908601FE0606805280ED1DA48E5
:100DC0000068012189040843D74908600846006883
:100DD000012109040843D44908600DE0D2480068A5
:100DE000012109048843D0490860084600680121B0
:100DF00089048843CC49086000BF6068002812D08D
:100E0000FFF7A8FD054606E0FFF7A4FD401B642898
:100E100001D90320B1E7C448006801214904084012
:100E20000028F1D011E0FFF795FD054606E0FFF739
:100E300091FD401B642801D903209EE7BA48006851
:100E40000121490408400028F1D10221206808400E
:100E5000022861D1B44840680C21084000280BD01A
:100E6000B1484068084008281BD1AF4840680121BC
:100E700009040840002814D1AB480068022108404A
:100E8000002804D0E068012801D0012075E7A648B9
:100E90000068F82188432169C9000843A249086015
:100EA0003AE0E068002820D09F480068012108430C
:100EB0009D490860FFF74EFD054606E0FFF74AFD35
:100EC000401B022801D9032057E7974800680221F8
:100ED00008400028F2D094480068F821884321692E
:100EE000C90008439049086016E08F480068400830
:100EF00040008D490860FFF72DFD054606E0FFF72D
:100F000029FD401B022801D9032036E786480068E6
:100F1000022108400028F2D1082120680840082852
:100F200031D1E069002817D07F48406A0121084389
:100F30007D494862FFF70EFD054606E0FFF70AFD12
:100F4000401B022801D9032017E77748406A022195
:100F500008400028F2D016E07348406A400840007C
:100F600071494862FFF7F6FC054606E0FFF7F2FC20
:100F7000401B022801D90320FFE66B48406A02218A
:100F800008400028F2D1042120680840042871D1CB
:100F900000266548C0698906084000280DD100BFB9
:100FA0006148C06908436049C8610846C0690904CE
:100FB0000840009000BF00BF01265C480068FF2188
:100FC00001310840002816D15848006808435749A5
:100FD0000860FFF7BFFC054606E0FFF7BBFC401BBF
:100FE000642801D90320C8E650480068FF21013178
:100FF00008400028F1D000BFA068012806D14A4867
:10100000006A01210843484908622BE0A0680028D3
:101010000CD14548006A4008400043490862084630
:10102000006A04218843404908621BE0A068052843
:101030000CD13D48006A042108433B490862084638
:10104000006A01210843384908620BE03648006A0B
:1010500040084000344908620846006A0421884379
:101060003149086200BFA068002813D0FFF772FC66
:10107000054608E029E0FFF76DFC401B2C4988423B
:1010800001D9032079E62848006A02210840002897
:10109000F1D011E0FFF75EFC054607E0FFF75AFCD0
:1010A000401B2349884201D9032066E61E48006A96
:1010B000022108400028F1D1012E05D11A48C0694B
:1010C000310788431849C86100BF102120680840D3
:1010D00010285FD1606901282CD11348406B04218E
:1010E0000843114948630846406B012108430E49F3
:1010F0004863FFF72FFC054606E0FFF72BFC401B7B
:10110000022801D9032038E60748406B0221084035
:101110000028F2D00448406BF8218843A169C90037
:1011200008430149486335E0001002400070004068
:10113000881300006069401D00280FD14E48406BA5
:10114000042188434C4948630846406BF821884392
:10115000A169C9000843484948631BE04648406B01
:1011600004210843444948630846406B4008400056
:101170004863FFF7EFFB054606E0FFF7EBFB401B7C
:10118000022801D90320F8E53B48406B02210840C2
:101190000028F2D1206A00286CD0374840680C2122
:1011A0000840082864D0206A022847D132480068E5
:1011B00001210906884330490860FFF7CBFB05464B
:1011C00006E0FFF7C7FB401B022801D90320D4E546
:1011D000294800680121490608400028F1D100BFD4
:1011E0002548C06A00090001E16A08432249C86233
:1011F000616AA06A0843204949683D22120491436C
:1012000008431D49486000BF0846006801210906DF
:10121000084319490860FFF79DFB054606E0FFF704
:1012200099FB401B022801D90320A6E5124800685B
:101230000121490608400028F1D01BE00E48006853
:101240000121090688430C490860FFF783FB054626
:1012500006E0FFF77FFB401B022801D903208CE545
:10126000054800680121490608400028F1D101E045
:10127000012082E5002080E50010024010B5044600
:101280000D4800690121490408430B4908610846DB
:1012900000690121490488430749086104210920A4
:1012A000C006FFF7ABF908210920C006FFF7A6F931
:1012B0001C20FFF7D7FB10BD0010024010B586B010
:1012C000044600BF264840690121490408432449D7
:1012D000486108464069012149040840009000BF68
:1012E00000BF00BF1E48406908431D4948610846C9
:1012F0004069012149040840009000BF00BF00BFC1
:101300001748C06908431649C8610846C0690121E9
:1013100049040840009000BF00BF04200190022053
:10132000029001200390032004900120059001A960
:101330000920C006FFF702FA08200190012005905D
:1013400001A90920C006FFF7F9F9022200211C209B
:10135000FFF7A0FB1C20FFF791FB06B010BD0000BB
:101360000010024010B50446002C01D1012010BD30
:1013700002215D20015520680068402188432168D2
:101380000860204600F07DF80020206600215D20E6
:10139000015500BF5C20015500BF0020E7E7014672
:1013A0005D20405C704770B50446002C01D10120DF
:1013B00070BD606A002800D100BF0021A1625D20DD
:1013C000005D002804D15C200155204600F05AF849
:1013D00002215D2001552068006840218843216872
:1013E000086007210902E068884201D9002501E070
:1013F00001252D030F210902E068884206D007214C
:101400000902E068884201D00021A162206B002817
:1014100009D107210902E068884202D9022121632B
:1014200001E001212163A168606808432169084344
:101430006169084301225202A16911400843E16930
:101440000843216A0843A16A084321680860A0692B
:10145000000C04210840616A0843616B0843E1689D
:1014600008432843216848602068C0699100884388
:101470002168C8610020206601215D2001550020FF
:1014800096E770477047FEB504460D4617461E4660
:1014900000200290019000BF5C20005D012801D176
:1014A0000220FEBD01215C20015500BFFFF752FA6A
:1014B00002905D20005D012802D002200190BFE073
:1014C000002D01D0002F02D101200190B8E00321AE
:1014D0005D20015500202066A563A787E78720646B
:1014E0000021442001534620015300202065E06480
:1014F0000121C903A068884205D12068006849100D
:10150000084321680860206800684021084040289E
:1015100004D0206800680843216808600721090298
:10152000E06888422DD96068002802D0E08F012849
:1015300006D128882168C860AD1CE08F401EE08776
:101540001BE02068806802210840022807D1288813
:101550002168C860AD1CE08F401EE0870DE0002EC2
:1015600008D0701C002808D0FFF7F4F90299401A3F
:10157000B04202D30320019062E0E08F0028E0D166
:1015800042E06068002802D0E08F012811D1E08F8E
:10159000012807D928882168C860AD1CE08F801E0B
:1015A000E08706E02878216808736D1CE08F401EF4
:1015B000E08726E02068806802210840022812D1D6
:1015C000E08F012807D928882168C860AD1CE08F0A
:1015D000801EE08715E02878216808736D1CE08F75
:1015E000401EE0870DE0002E08D0701C002808D0B7
:1015F000FFF7B0F90299401AB04202D303200190DC
:101600001EE0E08F0028D5D131462046029A01F035
:1016100011FC002801D020202066A068002809D1F4
:1016200000BF00902068C06800902068806800902B
:1016300000BF00BF206E002801D00120019000BF34
:1016400001215D20015500BF00215C20015500BF34
:10165000019826E7F0B585B004460D4616461F46AC
:10166000002004900390029001200190002000903F
:1016700000BF5C20005D012802D1022005B0F0BD52
:1016800001215C20015500BFFFF764F902905D2045
:10169000005D049060680390049801280DD0FF213C
:1016A00005310398884205D1A068002802D104982A
:1016B000042802D0022000901FE1002D03D0002E4C
:1016C00001D0002F02D10120009016E15D20005DC5
:1016D000042802D005215D200155002020662664E3
:1016E0004620075344200753A563E787A7870020B8
:1016F000E064206507210902E068884203D846209B
:10170000005B012807DD2068406801210903884348
:101710002168486006E02068406801210903084309
:10172000216848602068006840210840402804D0B3
:101730002068006808432168086007210902E06802
:1017400088424ED96068002802D0E08F012806D177
:1017500028882168C860AD1CE08F401EE08738E013
:101760000198002811D0E08F00280ED020688068F2
:1017700002210840022808D128882168C860AD1CD1
:10178000E08F401EE087002001904620005B00288B
:1017900011D020688068C007C00F00280BD02068D7
:1017A000C0683080B61C4620005B401E81B24620D7
:1017B0000153012001900A98401C002809D0FFF72E
:1017C000C9F80299411A0A98814202D30320009075
:1017D00093E0E08F0028C3D14620005B0028BFD1F2
:1017E0007CE06068002802D0E08F012811D1E08FF2
:1017F000012807D928882168C860AD1CE08F801EA9
:10180000E08706E02878216808736D1CE08F401E91
:10181000E0875CE0019800281CD0E08F002819D0F8
:101820002068806802210840022813D1E08F012837
:1018300007D928882168C860AD1CE08F801EE0872A
:1018400006E02878216808736D1CE08F401EE08751
:10185000002001904620005B00282AD02068806884
:10186000C007C00F002824D04620005B012814D9EF
:101870002068C0683080B61C4620005B801E81B2A4
:1018800046200153005B012811D8206840680121DF
:10189000090308432168486009E02068007B307034
:1018A000761C4620005B401E81B246200153012079
:1018B00001900A98401C002809D0FFF74BF80299C4
:1018C000411A0A98814202D30320009015E0E08F6C
:1018D00000289FD14620005B00289BD12046029A19
:1018E0000A9901F0A7FA002801D020202066206E76
:1018F000002801D00120009000BF01215D2001558A
:1019000000BF00215C20015500BF0098B6E6000032
:1019100070B504462546681E0949884201D9012050
:101920000CE0681E074948610321081F00F0F6FF1C
:1019300000200449886107200861002070BD000074
:10194000FFFFFF0000E000E010B50446002C01D1CD
:10195000012010BD2421692001552068006840083D
:101960004000216808600020216808602168486004
:10197000216888600B492068884203D12046FFF720
:101980007DFC02E0204600F027F90020E0660021FF
:10199000692001556A20015500BF6820015500BF2C
:1019A0000020D6E700440040FEF7E2FDF8B504460B
:1019B0002068C569206806682807000F0090009815
:1019C00000280BD120202840002807D020203040BC
:1019D000002803D0204601F0FFFCF8BD206887688E
:1019E000009800287ED0F807C00F002804D1FF20FF
:1019F000213030400028F5D0E807C00F00280BD078
:101A0000FF2001303040002806D001202168086204
:101A1000E06E01210843E0660220284000280AD039
:101A2000F807C00F002806D0022021680862E06E87
:101A300004210843E0660420284000280AD0F80763
:101A4000C00F002806D0042021680862E06E022141
:101A50000843E0660820284000280ED020203040AF
:101A6000002803D1F807C00F002806D008202168FD
:101A70000862E06E08210843E066E06E002841D06D
:101A800020202840002806D020203040002802D006
:101A9000204601F0A1FCE06E08210840002805D195
:101AA0002068806840210840002826D0204601F0A8
:101AB00072FC2068806840210840002819D0206806
:101AC0008068884321688860606E00280DD01B48BC
:101AD000616E4863606EFEF757FD002812D0606E9D
:101AE000416B00E00FE088470CE02046FFF75CFF09
:101AF00008E02046FFF758FF04E02046FFF754FFB8
:101B00000020E06669E780202840002807D0802078
:101B10003040002803D0204601F0A2FD5DE74020C0
:101B20002840002807D040203040002803D020461D
:101B300001F042FC51E700BF4FE700007F3300088F
:101B400010B50446002C01D1012010BDA069002869
:101B500000D000E000BF6920005D00280DD1002109
:101B6000682001551B492068884203D12046FFF7B1
:101B7000A5FB02E0204600F051F824216920015520
:101B8000206800684008400021680860204601F095
:101B900075FC012800D1D8E7606A002802D02046F1
:101BA00001F066FB206840680121C9028843216872
:101BB0004860206880680821884321688860206820
:101BC00000680121084321680860204601F0C8FB35
:101BD000BBE700000044004010B504460E48C06852
:101BE0000121890308430C49C8600846C0680121E7
:101BF000890388430849C86049150920C006FEF7D3
:101C0000FDFC012189020920C006FEF7F7FC1B201C
:101C1000FEF728FF10BD00000010024010B586B08E
:101C2000044600BF2748406901214904084325496B
:101C3000486108464069012149040840009000BFFE
:101C400000BF00BF1F48406908431E49486108465D
:101C50004069012149040840009000BF00BF00BF57
:101C600018488069C9100843164988610846806988
:101C7000012189030840009000BF00BF4811019076
:101C8000022002900120039003200490012005907F
:101C900001A90920C006FEF751FD01208002019034
:101CA0000120059001A90920C006FEF747FD012289
:101CB00000211B20FEF7EEFE1B20FEF7DFFE06B024
:101CC00010BD00000010024010B503466A20C05C41
:101CD00020285AD1002901D0002A01D1012010BDAD
:101CE000012424039868A04208D11869002805D16E
:101CF000C807C00F002801D00120F0E700BF68200E
:101D0000C05C012801D10220E9E701246820C45405
:101D100000BF59655820C2525A20C25200BF240346
:101D20009868A0420AD11869002803D1184C5C2099
:101D3000C45210E0FF245C20C4520CE098680028D4
:101D400009D11869002803D1FF245C20C45202E0A5
:101D50007F245C20C45200BF0020D86622246A2061
:101D6000C45400BF00246820C45400BF18688068B1
:101D7000012420431C68A06018680068FF242134F7
:101D800020431C6820600020A9E70220A7E700008C
:101D9000FF01000010B5044601200B4908704022E5
:101DA0000A490B48FEF7D8F940220A490748FEF7CE
:101DB000D3F94021054801F02DF8074800780121AA
:101DC00008430549087010BD30000020580200206B
:101DD000D802002098020020380000200121014A8A
:101DE000117070473000002000BFFEE710B50348B7
:101DF000FEF7F8FD0148FEF7B5FD10BD5C010020BF
:101E000070B505466C6A206840680121C903084323
:101E1000216848600020A16B4863E16B4863412062
:101E2000005D602806D12021412001552046FEF7A3
:101E300097FD02E02046FEF7E4FD70BD10B50346B5
:101E40000A460021D007C00F002809D042200143D4
:101E50004120C05C28242040282801D0B020014324
:101E600002201040022809D1442001434120C05CD7
:101E700028242040282801D0B0200143042010400D
:101E8000042801D1B820014311201040112801D1AC
:101E90009020014312201040122801D1202001433C
:101EA00012201040122801D1402001431868006818
:101EB00088431C682060002010BD016889690222E7
:101EC00011404908002902D000210268916201688E
:101ED0008969C907C90F012251405140002904D125
:101EE000016889691143026891617047F8B5044639
:101EF000002700250026002000904120005D2821B9
:101F00000840282854D1206880690121090408402C
:101F1000070C206880697F2149040840050C20686F
:101F200080688605B60D2068C068FE2108400090D4
:101F3000E06802282DD106202840F1110622114028
:101F4000884216D13546A06C401CA064A06C0228C3
:101F500036D10020A06408202168C86100BF00219C
:101F60004020015500BF2A4639462046FEF7F9FCBD
:101F700026E0009D04212046FFF760FF00BF0021FE
:101F80004020015500BF2A4639462046FEF7E9FCAD
:101F900016E004212046FFF751FF00BF002140203A
:101FA000015500BF2A4639462046FEF7DAFC07E015
:101FB00008202168C86100BF00214020015500BFF2
:101FC000F8BD000070B504460D46002142200155C1
:101FD0003F48E06200206085606C284360644120D7
:101FE000005D282807D04120005D292803D041202A
:101FF000005D2A280BD103212046FFF71FFF28216F
:102000004120015500202063324860630DE0072124
:102010002046FFF713FF4120005D602802D02021F9
:102020004120015500202063606320680068012181
:1020300089030840884215D12068006888432168D8
:1020400008602548A16B486300BF0021402001556E
:1020500000BFA06BFEF798FA002838D0A06B416B48
:10206000884734E0206800680121C903084088429D
:1020700015D1206800688843216808601648E16B24
:10208000486300BF00214020015500BFE06BFEF710
:102090007BFA00281BD0E06B416B884717E041209A
:1020A000005D60280BD120214120015500BF002197
:1020B0004020015500BF2046FEF752FC07E000BF5C
:1020C00000214020015500BF2046FEF79AFC70BD5C
:1020D0000000FFFFF1220008011E000870B5044651
:1020E0000D461A48E062002020632021412001555E
:1020F0000021422001550020606304202840002870
:1021000013D02068406AC1B2626A501C60621170CC
:10211000208D002809D0208D401E2085608D401E16
:102120006085606C04210843606407212046FFF746
:1021300085FE10202168C86100BF002140200155A4
:1021400000BF2046FEF75EFC70BD00000000FFFFF0
:1021500070B504460D4620202168C861082021681A
:10216000C86107212046FFF769FE20684068012109
:10217000C903084321684860206840684149084015
:10218000216848602046FFF798FE2068006801211A
:1021900089030840884205D020680068490008404B
:1021A00088420BD14120005D212803D1A06B00683B
:1021B000406802E0E06B006840686085608D002840
:1021C00003D0606C04210843606404202840002888
:1021D00013D02068406AC1B2626A501C60621170FC
:1021E000208D002809D0208D401E2085608D401E46
:1021F0006085606C04210843606400202063002136
:102200004220015500206063606C00280CD0616C96
:102210002046FFF7D7FE4120005D282831D129460E
:102220002046FFF75BFF2CE0E06A174988420DD09B
:102230000846E06220214120015500BF00214020D6
:10224000015500BF2046FEF7DDFB1AE04120005D8E
:1022500022280BD120214120015500BF0021402020
:10226000015500BF2046FEF7CEFB0AE020214120A9
:10227000015500BF00214020015500BF2046FEF758
:10228000C3FB70BD00E800FE0000FFFF10B5044670
:102290000021422001554120005D292811D128212B
:1022A000412001552120206301212046FFF7C6FD72
:1022B00000BF00214020015500BF2046FEF7A4FBCF
:1022C00014E04120005D2A2810D128214120015529
:1022D0002220206302212046FFF7B0FD00BF00212D
:1022E0004020015500BF2046FEF78DFB10BD0000C9
:1022F00070B504460D46164600BF4020005D01281B
:1023000001D1022070BD01214020015500BF1020E5
:102310002840002834D010203040002830D0608D74
:10232000002825D1E06A4906884202D0E06A884246
:1023300008D14120005D282804D129462046FFF716
:10234000CDFE70E0E06A414988420DD04120005D39
:10235000292809D110202168C8612046FFF7ADFD6A
:102360002046FFF793FF5EE010202168C8615AE025
:1023700010202168C861606C04210843606452E049
:102380000420284000281ED00420304000281AD005
:10239000608D00280CD02068406AC1B2626A501C6F
:1023A00060621170208D401E2085608D401E60850A
:1023B000608D002837D1E06A2449884233D0204616
:1023C000FFF764FF2FE008202840002808D00820ED
:1023D0003040002804D029462046FFF787FD22E040
:1023E0000220284000281ED00220304000281AD0A9
:1023F000608D00280CD0616A481C606208782168F2
:102400008862608D401E6085208D401E20850AE018
:10241000E06A01210906884202D0E06A002802D160
:102420002046FFF733FF20202840002807D0202037
:102430003040002803D029462046FFF789FE00BF20
:1024400000214020015500BF00205BE70000FFFF96
:1024500010B5012211020A48FEF775FA0122510255
:102460000748FEF770FA0022012149020448FEF7EE
:102470006AFA0022FF2101310148FEF764FA10BD1B
:102480000004004810B5012211020748FEF75BFA6C
:102490000022012149020448FEF755FA01225102A7
:1024A0000148FEF750FA10BD0004004810B50122A3
:1024B00011020548FEF747FA0022FF2101310248C8
:1024C000FEF741FA10BD000000040048704700000C
:1024D0001CB510A103C90191009005226946302066
:1024E00000F016F905226946102000F045F8002496
:1024F00006E06846005DA52800D003E0601CC4B279
:10250000052CF6DB00BF052C01D001201CBD0020EE
:10251000FCE70000A5A5A5A5A500000010B50022B8
:102520000121C9020920C006FEF70DFA0522114952
:102530002A2000F0EDF80121212000F00CF9012102
:10254000222000F008F92821252000F004F920219C
:10255000312000F000F90F21262000F0FCF80F21B7
:10256000202000F0F8F80122D1020920C006FEF771
:10257000EAF910BD4D39000877B583B00D4616460F
:10258000FF2001900022012109030920C006FEF767
:10259000DAF9012202A903A800F0EEFD002406E00A
:1025A0002919012201A800F0E7FD601CC4B2B44261
:1025B000F6DB012211030920C006FEF7C4F96846C4
:1025C000007A06B070BD01B582B0FF2100910022F3
:1025D000012109030920C006FEF7B5F902A800F0A1
:1025E000ADFD012201A9684600F0C6FD01221103DC
:1025F0000920C006FEF7A7F9684600790EBD70B540
:1026000004460720FFF7DFFF05462946272000F094
:10261000A2F84020284000280AD02022214661202C
:10262000FFF7AAFFFF21E22000F095F8002070BD1F
:102630000120FCE710B500220121C9020920C006D3
:10264000FEF781F905221449302000F061F80522D7
:1026500012492A2000F05CF80121212000F07BF8CB
:102660000121222000F077F81A21242000F073F8CD
:102670002821252000F06FF80F21262000F06BF8AC
:102680000E21202000F067F80122D1020920C006A7
:10269000FEF759F910BD0000483900084D3900080F
:1026A00070B505460022012109030920C006FEF786
:1026B0004AF920222946A02000F02AF80122D1025E
:1026C0000920C006FEF73FF900BF40210F48FEF782
:1026D0002DF90028F9D10720FFF775FF04462146A0
:1026E000272000F038F810202040002805D0FF21D6
:1026F000E12000F030F8102070BD2020204000289C
:1027000001D02020F8E7FF20F6E700000004004891
:1027100077B581B00D461646002201210903092034
:10272000C006FEF710F90122694601A800F024FD59
:10273000002404E0285D00F0EBFC601CC4B2B4424D
:10274000F8DB012211030920C006FEF7FCF86846F9
:10275000007804B070BD03B581B0002201210903E7
:102760000920C006FEF7EFF80122694601A800F033
:1027700003FD02A800F0E2FC012211030920C006BB
:10278000FEF7E1F8684600780EBD000000B587B09E
:10279000142102A8FDF737FD00BF4D484069012113
:1027A000490408434A4948610846406901214904EF
:1027B0000840019000BF00BF481102900120039023
:1027C00004900320059002A90920C006FDF7B6FF7A
:1027D00000BF3F4840690121490408433C49486122
:1027E00008464069012149040840019000BF00BF2C
:1027F000881102900120039004900320059002A903
:102800000920C006FDF79AFF00BF31484069012149
:10281000890408432E49486108464069012189041A
:102820000840019000BF00BF4020029000200390AC
:102830000120049002A92748FDF780FF00BF24482B
:1028400040690121890408432149486108464069DB
:10285000012189040840019000BF00BF08200290B8
:102860000120039004900320059002A91948FDF768
:1028700065FF00BF164840690121890408431449D7
:10288000486108464069012189040840019000BF61
:1028900000BF30200290012003900020049003200C
:1028A000059002A90B48FDF749FF00F0A9FB00F0D5
:1028B00013F8012211030920C006FEF744F8002294
:1028C0000121C9020920C006FEF73DF807B000BD8E
:1028D000001002400004004810B510210E48C161EC
:1028E0000021816041610161816201630721C16250
:1028F0000902C160002101620121490281610021B8
:1029000041624163FF2005300349486000F0A8FBA5
:102910000148FEF748FD10BD5400002010B5002806
:1029200019DA1A4A03071B0F083B9B089B00D25871
:102930008307DC0EFF23A3409A438B071B0E8407FB
:10294000E40EA3401A43114B0407240F083CA408CB
:10295000A4001A5118E00E4A03231B02D218830860
:102960009B00D2588307DC0EFF23A3409A438B07BA
:102970001B0E8407E40EA3401A43054B03242402D4
:102980001B198408A4001A5110BD00001CED00E0C2
:1029900000E100E070B5002418E02046B0300021CE
:1029A00000F07FF90021084600F07BF9002110209B
:1029B00000F077F9002505E00121002000F071F911
:1029C000681CC5B2802DF7DB601CC4B2082CE4DBA8
:1029D00070BD000000B587B000BF4B4840690121C1
:1029E000890408434849486108464069012189042F
:1029F0000840019000BF00BF0320000202900120A8
:102A0000039004900320059002A94048FDF796FE2C
:102A1000012211023D48FDF796FF012251023B4879
:102A2000FDF791FF1920400100F0BBFE0021AE2010
:102A300000F037F90021084600F033F9002110209A
:102A400000F02FF90021402000F02BF90021B020E8
:102A500000F027F90021812000F023F90021FF2058
:102A600000F01FF90021A12000F01BF90021A62091
:102A700000F017F90021A82000F013F900213F20F1
:102A800000F00FF90021C82000F00BF90021D3203D
:102A900000F007F90021084600F003F90021D520D5
:102AA00000F0FFF80021802000F0FBF80021D82082
:102AB00000F0F7F80021052000F0F3F80021D920FC
:102AC00000F0EFF80021F12000F0EBF80021DA200F
:102AD00000F0E7F80021122000F0E3F80021DB20ED
:102AE00000F0DFF80021302000F0DBF800218D201D
:102AF00000F0D7F80021142000F0D3F80021AF2017
:102B000000F0CFF807B000BD0010024000040048FC
:102B100070B504460D462846B030002100F0C1F8DB
:102B2000F0212140091108461030002100F0B9F8C9
:102B30002007000F002100F0B4F870BDFFB581B090
:102B400007460D460026002403982038C6B27F2F82
:102B500002DD0027A81CC5B20498102824D12946FC
:102B60003846FFF7D5FF002408E031010919184A5B
:102B7000505C012100F095F8601CC4B2082CF4DB15
:102B8000681CC1B23846FFF7C3FF002409E03101D9
:102B9000091908310E4A505C012100F082F8601CCE
:102BA000C4B2082CF3DB11E029463846FFF7B0FF2A
:102BB000002409E006217143064A8918085D0121B5
:102BC00000F06FF8601CC4B2062CF3DB05B0F0BD5A
:102BD0007A3B000852390008FFB583B01E460C9CB2
:102BE0000020029000253CE0701B401EC1B20A206C
:102BF00000F088FE014600900598FDF706FB0A21CB
:102C00000190FDF702FB0F460298002815D1701EB7
:102C1000A84212DD002F0ED1E00F001940106843CA
:102C2000019403994018C0B22346202200900499D1
:102C3000FFF784FF13E001200290E00F001940101D
:102C40006843019403994018C0B200903846303070
:102C5000C2B2234604990098FFF770FF00BF681CBA
:102C6000C5B2B542C0DB07B0F0BDFFB581B00446C8
:102C70000F46154600260FE0AA5D39462046049B04
:102C8000FFF75CFF20460830C4B2782C02DD002438
:102C9000B81CC7B2701CC6B2A85D0028ECD105B044
:102CA000F0BD70B504460D46002D03D0E0B200F033
:102CB0005FFD02E0E0B200F045FD70BD08B51023F5
:102CC00034A200210846FFF7D0FF0F2333A20221D0
:102CD0000020FFF7CAFF0F2332A202212B20FFF7AB
:102CE000C4FF0F2330A202215620FFF7BEFF0F239F
:102CF0002EA203210020FFF7B8FF0F232CA20421EE
:102D00000020FFF7B2FF0F232AA205210020FFF7C2
:102D1000ACFF102002230090274802880021562093
:102D2000FFF75AFF0F200423009023480288032155
:102D30002B20FFF751FF0F20042300901E4802882C
:102D400019462B20FFF748FF0F20042300901A4854
:102D5000028805212B20FFF73FFF0F20042300905E
:102D60001648028803215620FFF736FF0F20042360
:102D700000901348028819465620FFF72DFF0F20B8
:102D8000042300900F48028805215620FFF724FFF6
:102D900008BD000050484D65746572004954454DAA
:102DA0000000000056414C0054485200205048009A
:102DB000202054004F525000500000204A000020B4
:102DC0004C0000204E0000207047000010B5044663
:102DD0000E480F4908600846446000218160C160C8
:102DE000016181610C214161002009494862084666
:102DF000FEF7AAFD002801D0FDF7BAFB0448FEF754
:102E00009FFE002801D0FDF7B3FB10BD0044004039
:102E1000A801002070B504460D462A462146044804
:102E2000FEF752FF002801D0FDF7A2FB70BD0000A5
:102E3000A8010020F8B504460E4615463346002288
:102E40000321C9022046009500F01AF8002805D099
:102E5000206E2021084320660320F8BD334600225F
:102E600080212046009500F069F8002805D0206EEA
:102E70002021084320660320EFE70020EDE7000053
:102E8000F8B504460E4617461D464DE003204002A5
:102E9000864206D1002F04D12068017B009168464C
:102EA0000078681C00283FD0002D05D0FDF752FDAA
:102EB0000699401AA84237D320684068E021884329
:102EC00021684860FF210531606888420ED10121E8
:102ED000C903A068884203D04911A068884205D17F
:102EE0002068006840218843216808600121490367
:102EF000A06A88420ED100BF206800680E490840D1
:102F0000216808602068006801214903084321689E
:102F1000086000BF01215D20015500BF00215C2039
:102F2000015500BF0320F8BD206880683040B842DA
:102F3000ACD10020F7E70000FFDF0000F8B5044641
:102F40000E4617461D4642E0681C00283FD0002D63
:102F500005D0FDF7FFFC0699401AA84237D3206838
:102F60004068E021884321684860FF21053160689E
:102F700088420ED10121C903A068884203D04911BB
:102F8000A068884205D120680068402188432168F4
:102F9000086001214903A06A88420ED100BF206861
:102FA0000068114908402168086020680068012114
:102FB000490308432168086000BF01215D200155D5
:102FC00000BF00215C20015500BF0320F8BD206830
:102FD00080683040B04201D1012000E00020B842BA
:102FE000B2D10020F2E70000FFDF000010B5034877
:102FF000FEF7B8F900F004F810BD000054000020FE
:1030000010B51548FEF7CBF9002823D11348124913
:10301000086008211048C1610021816001214161DF
:10302000022101610021816201630721C16209025D
:10303000C1600021016201214902816100214162D8
:103040004163FF2005300449486000F009F8024858
:10305000FEF7A9F910BD0000540000200030014027
:1030600000B587B0142102A8FDF7CDF800BF2648AF
:1030700040690121890408432349486108464069A1
:10308000012189040840019000BF00BF00BF1E4815
:10309000406908431C494861084640690121890488
:1030A0000840019000BF00BF08200290022003905A
:1030B00001200490032005900020069002A91348E7
:1030C000FDF73CFB20200290002006900220049097
:1030D00002A90E48FDF732FB1020029002A90B480E
:1030E000FDF72CFB00BF0848806901210903084354
:1030F000054988610846806989140840019000BF2D
:1031000000BF07B000BD00000010024000040048EE
:1031100011B583B0002407480068012302AA03A95F
:1031200000900548FEF796FA0446002C01D0FFF700
:103130005DFF1FBD200000205400002010B5044694
:103140000121204600F002F810BD000070B50446D1
:103150000D46002606482A46214603680548FEF724
:1031600092F90646002E01D0FFF740FF70BD000027
:103170002000002054000020F8B504460D461646F5
:1031800000270748006833462A4621460090054834
:10319000FEF760FA0746002F01D0FFF727FFF8BDC2
:1031A0002000002054000020704710B5FDF72EFCD1
:1031B00010BD00B591B000200190022009900021BF
:1031C0000A910C910521C9040B9101A8FDF7B0FDEE
:1031D000002801D0FDF7CAF907200D9002200E90BB
:1031E00000200F90109001210DA8FDF75DFC002834
:1031F00001D0FDF7BBF911B000BD0000194800680F
:1032000001210843174908600846406816490840EC
:10321000144948600846006814490840114908608C
:10322000084600680121890488430E490860084661
:1032300040683F21090488430A4948600846C06A3B
:1032400000090001C8620846006BFF211431884361
:10325000044908630846406B40084000486300206A
:1032600088607047001002400CB8FF08FFFFF6FEB0
:10327000818CC907C90F002908D00168496801225B
:1032800052049143826A1143026851600222416AEA
:103290001140002907D001684968D2039143C26AEE
:1032A0001143026851600422416A1140002907D08D
:1032B0000168496812049143026B1143026851602E
:1032C0000822416A1140002907D0016849681203A9
:1032D0009143426B1143026851601022416A1140D0
:1032E000002907D00168896812029143826B11435B
:1032F000026891602022416A1140002907D00168CC
:10330000896812029143C26B1143026891604022A6
:10331000416A1140002915D0016849689203914320
:10332000026C11430268516001221205016C914246
:1033300008D101684968032252059143426C114348
:10334000026851608022416A1140002907D001685B
:10335000496812039143826C1143026851607047BF
:1033600001460020C8662022692042546A20425447
:1033700000BF00226820425400BF0020704770B593
:1033800005466C6A00215A20015352200153204601
:10339000FEF70AFB70BD01680968FF2221329143E4
:1033A00002681160016889684908490002689160F3
:1033B00020226A210A54704710B50446206800682C
:1033C000402188432168086020216920015520465A
:1033D000FEF704FD002010BDF8B504465C20075B35
:1033E0006A20005D222840D12068858C01210903D4
:1033F000A06888420AD12069002807D1666D284656
:1034000038403080606D801C606505E0F8B228406F
:10341000626D511C616510705A20005B401E81B2C4
:103420005A200153002909D0606D2038C07F0A2836
:1034300019D1606D2038807F0D2814D12068006874
:10344000FF21213188432168086020688068400896
:1034500040002168886020216A2001552046FEF73F
:1034600099FC0020F8BD0020FCE720688069082155
:103470000843216888610220F4E70000FEB5044695
:103480000025102600270020029001902169A068E5
:10349000084361690843E1690843054620680068FC
:1034A0006849084028432168086020684068032173
:1034B00009038843E168084321684860216AA069DC
:1034C00008430546206880680B2109028843284389
:1034D0002168886000BF5C492068884217D15B483A
:1034E000006B8007800F002806D0012808D0022832
:1034F00008D0032808D101E0002607E0022605E0F5
:10350000042603E0082601E0102600BF06E050492B
:103510002068884201D1002600E0102600BF01216A
:10352000C903E069884249D1042E20D004DC002E72
:1035300007D0022E32D111E0082E25D0102E2DD129
:103540002DE0FDF781FB40006168490840180090BC
:103550006168FCF75AFE80B2029023E061684A0875
:103560003C4BD018FCF751FE80B202901AE0FDF7F8
:103570007DFB400061684908401800906168FCF7D5
:1035800044FE80B202900DE061684A0801231B04EA
:10359000D018FCF73AFE80B2029003E000BF012091
:1035A000019000BF00BF2C490298084007460298CE
:1035B0000007400F07432068C76040E0042E21D079
:1035C00004DC002E07D0022E34D111E0082E26D0C4
:1035D000102E2FD12FE0FDF737FB61684908401806
:1035E00000906168FCF711FE80B22168C86025E098
:1035F00061684A08194BD018FCF707FE80B22168B1
:10360000C8601BE0FDF732FB616849084018009074
:103610006168FCF7FAFD80B22168C8600EE061685D
:103620004A080123DB03D018FCF7EFFD80B22168C4
:10363000C86003E000BF0120019000BF00BF0198F7
:10364000FEBD0000F369FFFF00380140001002409A
:10365000004400400024F400F0FF000000127A0053
:1036600001466920405C212831D15220405A00286F
:103670000DD108680068802398430B6818600868BB
:103680000068402318430B6818600020704701232E
:103690001B03886898420CD10869002809D1CA6CBC
:1036A0001088C005C00D0B681885C86C801CC864E4
:1036B00005E0CB6C581CC86418780B68188552203C
:1036C000405A401E83B2522043520020DEE70220BF
:1036D000DCE7000010B50248FEF768F910BD0000F5
:1036E000A8010020F8B505462C460022FF21013133
:1036F0001348FDF728F900261FE0274680200740E1
:10370000802F05D1012281000D48FDF71CF905E04D
:103710000022012149020A48FDF715F96006040E4E
:10372000012211020648FDF70EF90022FF210131A6
:103730000348FDF708F9701CC6B2082EDDDBF8BDA2
:103740000004004810B50446FEF782FE7820FFF71B
:10375000C9FFFEF7ABFE0020FFF7C4FFFEF7A6FE91
:103760002046FFF7BFFFFEF7A1FEFEF78BFE10BD60
:1037700010B50446FEF76CFE7820FFF7B3FFFEF7A6
:1037800095FE4020FFF7AEFFFEF790FE2046FFF7C4
:10379000A9FFFEF78BFEFEF775FE10BD014600BFC8
:1037A000704710B504462046FCF71AFF10BD000014
:1037B0008AB000240025FDF731F9FFF7FAFC4B2011
:1037C000C001FFF703FBFFF705F9FEF7DFFF00215C
:1037D0000846FCF765FE00210120FCF761FE002091
:1037E000FCF7EEFD0120FCF7EBFD0220FCF7E8FD05
:1037F00005E0102336A206210020FFF736FAFEF777
:1038000067FE0028F5D1FFF7C5F8FFF757FA002D3E
:1038100023D1FEF783FE1FE001A8FEF7F0FE00288B
:103820000DD108A9087110232BA20621FFF71DFA5C
:10383000102301AA06210220FFF717FA02E0012057
:10384000FCF7CEFE601C84B27D20C000844203D110
:1038500000240020FCF714FEDEE7FEF7EBFE102349
:103860001FA206210020FFF700FA20252FE001A863
:10387000FEF716FF20281ED110231BA206210220CE
:10388000FFF7F3F900240BE060197E2803DD202008
:1038900001A9085502E0601901A90855601C84B20D
:1038A000202CF1DB681CC5B27E2D00DD2025002018
:1038B00008A9087105E010230EA206210220FFF7D7
:1038C000D4F90020FCF7DCFD0D48FCF789FECEE7BB
:1038D0004E524620455252004E5246205258000049
:1038E0004E5246205458000053656E642044617463
:1038F0006100000053656E64204661696C00000041
:10390000DC05000010B50246012002E003465343E7
:1039100018460B464C1EE1B2002BF7D110BD00003B
:10392000000000000000010203040607080900006F
:10393000000001020304000140008000001000208C
:10394000000000000707000034431010013443104A
:1039500010010000000000000000002F0000000027
:103960000700070000147F147F1400242A7F2A1206
:1039700000626408132300364955225000000503F5
:10398000000000001C224100000041221C00001425
:10399000083E08140008083E0808000000A0600067
:1039A00000080808080800006060000000201008F7
:1039B0000402003E5149453E0000427F4000004263
:1039C00061514946002141454B31001814127F10C6
:1039D000002745454539003C4A49493000017109F5
:1039E000050300364949493600064949291E0000A9
:1039F0003636000000005636000000081422410050
:103A0000001414141414000041221408000201517F
:103A1000090600324959513E007C1211127C007F88
:103A200049494936003E41414122007F4141221C23
:103A3000007F49494941007F09090901003E414988
:103A4000497A007F0808087F0000417F410000207C
:103A500040413F01007F08142241007F4040404028
:103A6000007F020C027F007F0408107F003E41416E
:103A7000413E007F09090906003E4151215E007F59
:103A8000091929460046494949310001017F0101D0
:103A9000003F4040403F001F2040201F003F403873
:103AA000403F0063140814630007087008070061B2
:103AB0005149454300007F41410000552A552A5590
:103AC000000041417F000004020102040040404028
:103AD0004040000001020400002054545478007F4C
:103AE0004844443800384444442000384444487F23
:103AF00000385454541800087E0901020018A4A488
:103B0000A47C007F080404780000447D400000404D
:103B100080847D00007F102844000000417F400029
:103B2000007C04180478007C0804047800384444BD
:103B3000443800FC242424180018242418FC007C99
:103B40000804040800485454542000043F44402012
:103B5000003C4040207C001C2040201C003C4030A9
:103B6000403C004428102844001CA0A0A07C004435
:103B700064544C4414141414141400000000000085
:103B800000000000000000000000000000F800003D
:103B90000000000000333000000000100C06100C84
:103BA0000600000000000000000040C07840C0781F
:103BB0004000043F04043F040400007088FC083007
:103BC0000000001820FF211E0000F008F000E0189F
:103BD000000000211C031E211E0000F00888700058
:103BE00000001E2123241927211010160E000000AA
:103BF00000000000000000000000000000E01804C9
:103C00000200000000071820400000020418E00035
:103C100000000040201807000000404080F0804075
:103C200040000202010F01020200000000F000004B
:103C300000000101011F010101000000000000005F
:103C4000000080B0700000000000000000000000D4
:103C5000000000010101010101010000000000005D
:103C60000000003030000000000000000000806014
:103C70001804006018060100000000E01008081099
:103C8000E000000F102020100F00001010F80000BE
:103C900000000020203F2020000000700808088855
:103CA0007000003028242221300000300888884825
:103CB00030000018202020110E000000C02010F855
:103CC000000000070424243F240000F80888880826
:103CD00008000019212020110E0000E0108888182B
:103CE0000000000F112020110E0000380808C8380D
:103CF00008000000003F00000000007088080888ED
:103D00007000001C222121221C0000E01008081075
:103D1000E0000000312222110F00000000C0C000AE
:103D200000000000003030000000000000800000B3
:103D300000000000806000000000000080402010B3
:103D400008000001020408102000404040404040AC
:103D5000400004040404040404000008102040800F
:103D60000000002010080402010000704808080844
:103D7000F0000000003036010000C030C828E81014
:103D8000E0000718272423140B000000C038E000CF
:103D90000000203C23020227382008F88888887019
:103DA0000000203F202020110E00C0300808080825
:103DB0003800071820202010080008F8080808100C
:103DC000E000203F202020100F0008F88888E80835
:103DD0001000203F20202320180008F88888E808D9
:103DE0001000203F200003000000C0300808083801
:103DF000000007182020221E020008F80800000812
:103E0000F808203F210101213F20000808F8080898
:103E100000000020203F2020000000000808F808D3
:103E20000800C08080807F00000008F888C0281843
:103E30000800203F20012638200008F80800000074
:103E40000000203F20202020300008F8F800F8F87B
:103E50000800203F003F003F200008F830C0000865
:103E6000F808203F200007183F00E010080808105D
:103E7000E0000F10202020100F0008F808080808A4
:103E8000F000203F210101010000E01008080810A7
:103E9000E0000F18242438504F0008F888888888DC
:103EA0007000203F2000030C3020007088080808B4
:103EB00038000038202121221C00180808F80808C2
:103EC00018000000203F2000000008F8080000084B
:103ED000F808001F202020201F000878880000C854
:103EE0003808000007380E010000F80800F8000844
:103EF000F800033C0700073C03000818688080684E
:103F0000180820302C03032C30200838C800C8388B
:103F100008000000203F2000000010080808C838F2
:103F200008002038262120201800000000FE020290
:103F300002000000007F40404000000C30C0000044
:103F40000000000000010638C00000020202FE006E
:103F50000000004040407F00000000000402020218
:103F6000040000000000000000000000000000004D
:103F70000000808080808080808000020204000039
:103F80000000000000000000000000008080808031
:103F900000000019242222223F2008F8008080001F
:103FA0000000003F112020110E00000000808080E2
:103FB0000000000E112020201100000000808088E9
:103FC000F800000E112020103F200000808080802B
:103FD0000000001F222222221300008080F0888827
:103FE00088180020203F2020000000008080808072
:103FF0008000006B94949493600008F800808080A7
:104000000000203F210000203F2000809898000001
:1040100000000020203F2020000000000080989831
:10402000000000C08080807F000008F800008080D1
:104030008000203F24022D302000000808F80000F6
:1040400000000020203F20200000808080808080B1
:104050008000203F20003F20003F80800080808043
:104060000000203F210000203F2000008080808051
:104070000000001F202020201F0080800080800082
:10408000000080FFA12020110E0000000080808031
:104090008000000E112020A0FF80808080008080A2
:1040A000800020203F2120000100000080808080CF
:1040B00080000033242424241900008080E08080C4
:1040C00000000000001F2020000080800000008011
:1040D0008000001F202020103F2080808000008072
:1040E000808000010E300806010080800080008082
:1040F00080800F300C030C300F0000808000808027
:1041000080000020312E0E31200080808000008051
:10411000808080818E701806010000808080808001
:1041200080000021302C2221300000000000807C23
:10413000020200000000003F404000000000FF00BD
:10414000000000000000FF0000000002027C800070
:1041500000000040403F0000000000060101020294
:104160000404000000000000000000008C41000872
:104170000000002054000000F8000008E0410008A2
:1041800054000020640900001401000800127A00A5
:1041900000000048001400480014004800040048D3
:1041A000000400480000000000000000E8030000D8
:1041B00000000000000000000000000000000000FF
:1041C00000000000000000000000000000000000EF
:1041D00000000000000000000000000000000000DF
:04000005080001915D
:00000001FF
