:020000040800F2
:10000000F80A002075010008DD250008F91E000827
:1000100000000000000000000000000000000000E0
:100020000000000000000000000000003D32000859
:100030000000000000000000A13000083F3200086E
:100040008701000800000000870100088701000800
:10005000870100088701000887010008550B000888
:1000600000000000870100088701000887010008E0
:1000700087010008870100088701000800000000D0
:1000800087010008870100080000000087010008C0
:10009000870100088701000887010008FD1E00088D
:1000A0008701000887010008870100088701000810
:1000B000F137000800F002F800F030F80CA030C86A
:1000C000083824182D18A246671EAB4654465D46D4
:1000D000AC4201D100F022F87E460F3E0FCCB6466E
:1000E0000126334200D0FB1AA246AB4633431847E1
:1000F000384100005841000000230024002500265C
:10010000103A01D378C1FBD8520700D330C100D5D3
:100110000B6070471FB51FBD10B510BD00F039F959
:100120001146FFF7F7FF03F0D1FB00F051F903B4DC
:10013000FFF7F2FF03BC03F0BFFB000070B50546FC
:100140000C46164602E00FCC0FC5103E102EFAD218
:10015000082E02D303CC03C5083E042E07D301CCDE
:1001600001C5361F03E021782970641C6D1C761EC2
:10017000F9D270BD0748804707480047FEE7FEE711
:10018000FEE7FEE7FEE7FEE704480549054A064BA1
:100190007047000091320008B5000008F804002004
:1001A000F80A0020F8060020F80600207047F8B58D
:1001B000042A2CD3830712D00B78491C0370401CEF
:1001C000521E83070BD00B78491C0370401C521E33
:1001D000830704D00B78491C0370401C521E8B0708
:1001E0009B0F05D0C91ADF002023DE1B08C90AE0D7
:1001F000FFF7A4FFF8BD1D4608C9FD401C46B440EA
:100200002C4310C0121F042AF5D2F308C91A521E3B
:10021000F0D40B78491C0370401C521EEAD40B78B2
:10022000491C0370401C012AE4D409780170F8BD10
:10023000002203098B422CD3030A8B4211D30023E3
:100240009C464EE003460B433CD4002243088B42BD
:1002500031D303098B421CD3030A8B4201D394464A
:100260003FE0C3098B4201D3CB01C01A524183093D
:100270008B4201D38B01C01A524143098B4201D3F7
:100280004B01C01A524103098B4201D30B01C01A22
:100290005241C3088B4201D3CB00C01A524183089C
:1002A0008B4201D38B00C01A524143088B4201D3C9
:1002B0004B00C01A5241411A00D201465241104629
:1002C00070475DE0CA0F00D04942031000D340429E
:1002D000534000229C4603098B422DD3030A8B42D4
:1002E00012D3FC22890112BA030A8B420CD3890172
:1002F00092118B4208D3890192118B4204D3890158
:100300003AD0921100E08909C3098B4201D3CB0195
:10031000C01A524183098B4201D38B01C01A52414A
:1003200043098B4201D34B01C01A524103098B424E
:1003300001D30B01C01A5241C3088B4201D3CB0039
:10034000C01A524183088B4201D38B00C01A52411C
:10035000D9D243088B4201D34B00C01A5241411AF3
:1003600000D20146634652415B10104601D3404221
:10037000002B00D54942704763465B1000D34042D2
:1003800001B50020C046C04602BD704770477047A7
:100390007047754600F022F8AE46050069465346A0
:1003A000C008C000854618B020B5FFF7EDFE60BC60
:1003B00000274908B6460026C0C5C0C5C0C5C0C58F
:1003C000C0C5C0C5C0C5C0C5403D49008D467047C9
:1003D0000446C046C0462046FFF7A9FE00487047C5
:1003E0009404002070B58C180578401C6B075B0FD7
:1003F00001D10378401C2A1106D10278401C03E089
:100400000678401C0E70491C5B1EF9D12B0705D4E1
:100410000023521E0DD40B70491CFAE70378401CD0
:10042000CB1A921C03E01D780D70491C5B1C521EF8
:10043000F9D5A142D8D3002070BD000010B586B018
:10044000044600BF002C0FD100BF214840690121A4
:10045000490408431E49486108464069012149048E
:100460000840009000BF1FE0012C0DD100BF1848CC
:100470004069A10508431649486108464069A1053D
:100480000840009000BF0FE0022C0DD100BF1048C3
:100490004069610508430E494861084640696105A5
:1004A0000840009000BF00BF00BF60000949085A23
:1004B0000190012002900020039003200490A100ED
:1004C000054A505801A900F037FC06B010BD0000E5
:1004D00000100240F23900080400002010B5044664
:1004E0006200044B995AA200034B9858012200F075
:1004F0001FFD10BDF23900080400002010B50446AD
:100500006200044B995AA200034B985800F00CFD6E
:1005100010BD0000F23900080400002070B502464A
:100520000B46FF24FF2508E01178521C6140074864
:10053000405C684004460648455C18465E1EB3B2FF
:100540000028F1D12002284370BD00005400002093
:100550005401002010B5102302A20021084602F029
:10056000E6F910BD444F43524300000010B5074860
:10057000007880210840002807D000F083FA034863
:100580000078802188430149087010BD5402002082
:1005900070B5002400253C480078032801D000F005
:1005A00065FA39484078032802D0102867D148E01E
:1005B0003548C07B00023449097C084304460F21BA
:1005C0003148FFF7ABFF0546AC4202D0FFF7C2FF50
:1005D00070BD2D48C07800022B49097908432B498A
:1005E0000880294840790002274989790843284929
:1005F00008802548C07900022349097A0843254923
:1006000008802148407A00021F49897A084322491C
:1006100008801D48C07A00021B49097B08431F4916
:1006200008801948407B1E4908801E4800788021B8
:1006300088431C490870084600784008400008704C
:100640001EE01148807900020F49C9790843044629
:1006500006210D48FFF762FF0546AC4202D0FFF7C6
:1006600079FFB5E70F480078802188430D4908706D
:1006700008460078022188430A49087000E000BF5C
:1006800000BF00BFA4E70000800400205802002043
:100690005A0200205C0200205E020020600200205E
:1006A000620200205402002038B510238EA20021DF
:1006B000084602F03CF91020022300908C48028882
:1006C0000021402002F0EAF80F238AA20221002034
:1006D00002F02DF90F2389A20221222002F027F92E
:1006E0000F2387A20221422002F021F90F2385A2C5
:1006F0000221622002F01BF90F2383A203210020B4
:1007000002F015F90F2381A20421002002F00FF955
:100710000F237FA20521002002F009F90A217D485C
:100720000088FFF78FFD04460F2002232246032195
:100730000090222002F0B2F80F2377A203212F208D
:1007400002F0F5F80A2173480088FFF77BFD0C469C
:100750000F200123224603210090342002F09EF84E
:100760007D21C9006D480088FFF76CFD04460F200D
:100770000123224603210090422002F08FF80F232C
:1007800065A20321492002F0D2F87D21C900634807
:100790000088FFF757FD0D4664212846FFF752FDFC
:1007A00004460F2001232246032100904E2002F030
:1007B00075F8642159480088FFF744FD0D460A2169
:1007C0002846FFF73FFD04460F2001232246032160
:1007D0000090542002F062F80A2150480088FFF788
:1007E00031FD0C460F2001232246032100905A20A0
:1007F00002F054F864214A480088FFF723FD0446BC
:100800000F200223224604210090422002F046F8E5
:100810000F2341A204214F2002F089F864214048AF
:100820000088FFF70FFD0D460A212846FFF70AFD55
:1008300004460F200123224604210090542002F098
:100840002DF80A2136480088FFF7FCFC04460F20EB
:1008500001232246042100905A2002F01FF80A21A9
:1008600030480088FFF7EEFC04460F2002232246A2
:1008700005210090422002F011F80F2326A2052145
:100880004F2002F054F80A2126480088FFF7DAFCCE
:100890000C460F200123224605210090542001F030
:1008A000FDFF0A2120480088FFF7CCFC04460F20FA
:1008B0000223224603210090622001F0EFFF0F2364
:1008C00015A203216F2002F032F80A211648008891
:1008D000FFF7B8FC0C460F200123224603210090AD
:1008E000742001F0DBFF38BD444F4D657465720024
:1008F000620200204954454D000000004D494E0061
:1009000056414C004D41580020444F0020205400D7
:100910004C5443005E0200202E00000058020020CC
:100920005A020020600200205C020020F8B500247A
:10093000002500263E4800788021884304463D4833
:10094000C07800023B49097908430546032139482C
:10095000FFF7E4FD0646B54202D0FFF7FBFDF8BD08
:1009600034480078032801D000F080F831484078FE
:1009700080218843304908702E4880782F490870BC
:1009800001F06AFE10232EA20021084601F0CFFFDD
:1009900010232DA20021402001F0C9FF0F232CA21B
:1009A0000321002001F0C3FF0F232BA2042100200C
:1009B00001F0BDFF0F20042300901F48027803219F
:1009C000422001F06BFF0F20042300901B480278A7
:1009D0001946422001F062FF012C02D0022C23D1E3
:1009E0000DE01348007880218843114908700846BB
:1009F000007840084000087000F054F815E00C48FA
:100A00000078802188430A4908700846007802214E
:100A10008843074908701248028812480188124822
:100A2000008800F063F800E000BF00BF00BF96E759
:100A300054020020800400205502002056020020AD
:100A4000444F4D65746572004572726F720000000C
:100A50002020457272464300457272434F44450060
:100A600068020020660200206402002010B51023F6
:100A700002A20021084601F05AFF10BD444F455222
:100A80005200000010B50648407880210840002838
:100A900002D0FFF74BFF01E0FFF77AFD10BD000029
:100AA0008004002010B5002403200E49087048700F
:100AB00000208870C8700871062048710621094816
:100AC000FFF72CFD04460749CC71201288710821DC
:100AD000044802F091FB04480078012108430249D0
:100AE000087010BD7104002054020020F8B50446BF
:100AF0000D46164600270320144908701020487040
:100B000000208870C8700871032048710620887121
:100B10002012C8710C72281248728D723012C8727D
:100B20000E730D210948FFF7F9FC074638120749F3
:100B300048738F730F21054802F05EFB044800786C
:100B40000221084302490870F8BD0000710400202A
:100B50005402002010B50120000300F0DDF8012050
:100B6000400300F0D9F810BD00BFFEE70120FFF7F9
:100B7000B5FC06E00120FFF7C1FC7D20C00000F0BD
:100B80002DF8F7E770B5044600252120005D022806
:100B900003D00420A06301251EE0206800680E2118
:100BA0008843216808602068006840084000216888
:100BB00008600120216C8840E16B48600121212000
:100BC000015500BF00212020015500BF606B0028A7
:100BD00002D02046616B8847284670BD31B500249D
:100BE00000F0ACF9044600BF00F0A8F9001B009922
:100BF0008842F9D338BD0000F0B502460B4600200C
:100C0000002100246FE0012585401D402946002970
:100C100068D0156847000326BE40B5431560C50877
:100C2000AE0015462035AD594607F70E0F26BE40DB
:100C3000B543C608B60017462037BD519568470032
:100C40000326BE40B5439560556801268640B543EE
:100C50005560D56847000326BE40B543D560244D96
:100C60008608B600AC5985072E0F0F25B5402C40DD
:100C70000925ED06AA4201D100250FE01D4DAA422B
:100C800001D101250AE01C4DAA4201D1022505E04F
:100C90001A4DAA4201D1032500E005258607360F2B
:100CA000B540A5421ED185072E0F0F25B5402C4615
:100CB0000F4D8608B600AD59A5430D4E8708BF00FD
:100CC000F5510F4D2D688D430D4E356035466D68DD
:100CD0008D4375603546AD688D43B5603546ED682A
:100CE0008D43F560401C1D46C540002D8BD1F0BDE5
:100CF000080001400004004800080048000C0048BB
:100D00000004014001210903884202D10121014A66
:100D1000116070472800002010B50446054840695E
:100D20002040002804D0034844612046FFF7EAFF32
:100D300010BD00000004014078B5034600220024E5
:100D40000020DEE0012696400D6835402C46002C40
:100D50007ED04D68022D02D04D68122D15D1D508D8
:100D6000AE001D462035A8595507EE0E0F25B5409B
:100D70000646AE4330465607F60E0D69B540284389
:100D8000D508AD001E462036705118685600032560
:100D9000B5400646AE4330460D79AD07AD0F56005F
:100DA000B540284318604D68012D08D04D68022DCC
:100DB00005D04D68112D02D04D68122D18D19868BC
:100DC00056000325B5400646AE4330465600CD6872
:100DD000B540284398605868012595400646AE43C3
:100DE000304610264D6835402D09954028435860FF
:100DF000D86856000325B5400646AE433046560037
:100E00008D68B5402843D860012636074D683540C7
:100E1000B54275D100BF3E4DAD69012635433C4E0C
:100E2000B5613546AD69ED07ED0F009500BF00BF18
:100E3000384D9608B600A85995072E0F0F25B540D6
:100E40000646AE4330460925ED06AB4203D100E02D
:100E500056E000250FE0304DAB4201D101250AE0FC
:100E60002E4DAB4201D1022505E02D4DAB4201D103
:100E7000032500E005259607360FB5402843254D8C
:100E80009608B600A851274D28680546A543284670
:100E9000012636044D683540B54202D1054625434A
:100EA0002846204D286068680546A5432846012647
:100EB00076044D683540B54202D1054625432846A3
:100EC000184D6860A8680546A543284601263605E2
:100ED0004D683540B54202D1054625432846114D9F
:100EE000A860E8680546A5432846012676054D68B2
:100EF0003540B54202D1054625432846094DE860F4
:100F0000521C0D68D540002D00D01BE778BD0000B5
:100F1000001002400800014000040048000800489A
:100F2000000C00480004014042694A404261704799
:100F3000002A01D0816100E08162704701480068A9
:100F4000704700002C0000207047704770B50446C1
:100F50002068856920680668FF2001302840002845
:100F60000AD080203040002806D0606C0121084360
:100F7000606408022168C8610120800228400028BE
:100F80000AD080203040002806D0606C0821084339
:100F90006064C8012168C86101204002284000281F
:100FA0000AD080203040002806D0606C022108431F
:100FB000606408022168C861606C0B210840002849
:100FC00003D0616C204601F085F870BD70B5044611
:100FD0002068856920680668606B002804D0324666
:100FE00029462046636B984770BD7047704770472D
:100FF0007047000002480068401C014908607047C3
:101000002C00002010B50648006810210843044950
:101010000860032000F006F800F017F8002010BD6B
:101020000020024070B5044600F0FCF806467D2121
:10103000C900FFF7FDF8054600F088FC00222146B4
:10104000501E00F01BF8002070BD704700BFC206A4
:10105000D20E01219140024A116000BF704700008A
:1010600080E100E000BFC206D20E01219140024A99
:10107000116000BF7047000000E100E070B5044659
:101080000D4616462946204601F0AAFA70BD00001A
:1010900070B504460D4600265D480068C007C00FC5
:1010A000A8420ED25A4800684008400028435849D8
:1010B000086008460068C007C00FA84201D00120A0
:1010C00070BD022120680840022807D151484068BD
:1010D000F0218843A16808434E4948602078C00742
:1010E000C00F00285FD06068012808D14948006817
:1010F000012149040840002815D10120E0E760687B
:10110000022808D143480068012149060840002808
:1011100009D10120D4E73F48006802210840002897
:1011200001D10120CCE73B4840688008800061681D
:10113000084338494860FFF701FF06466068012808
:101140000FD107E0FFF7FAFE801B3349884201D92F
:101150000320B5E72F4840680C2108400428F1D14E
:1011600021E0606802280FD107E0FFF7E7FE801B4F
:101170002949884201D90320A2E7264840680C216A
:1011800008400828F1D10EE007E0FFF7D7FE801BEA
:101190002149884201D9032092E71E4840680C216A
:1011A00008400028F1D11A480068C007C00FA842C3
:1011B0000ED91748006840084000284314490860C9
:1011C00008460068C007C00FA84201D0012077E799
:1011D000042120680840042808D10E4840680721EF
:1011E00009028843E16808430A49486000F032F880
:1011F00008494968F02211400909084A515CC84071
:10120000074908600320FFF70DFF002058E70000A2
:10121000002002400010024088130000DA39000864
:101220000000002001480068704700000000002016
:1012300000B5FFF7F7FF0549496807221202114080
:10124000090A034A515CC84000BD0000001002407A
:10125000EA390008F0B589B024A001460EC9C0687B
:1012600005AC0EC4089025A001460EC9C06801ACAB
:101270000EC40490002400270025002600200090C2
:10128000224844680C202040002827D0042802D09F
:10129000082822D102E01E48009022E00F2080049E
:1012A0002040800C05A90E5C1848C06A0007000F9A
:1012B00001A90F5C0120000420400121090488429B
:1012C00006D139461248FEF7B3FF7043054602E0E7
:1012D000104835464543009503E000BF0C48009098
:1012E00000BF00BF009809B0F0BD00000203040574
:1012F000060708090A0B0C0D0E0F1010010203045B
:1013000005060708090A0B0C0D0E0F10001002400D
:1013100000127A0000093D00F8B504460025207847
:10132000C007C00F002871D0F94840680C21084060
:1013300004280BD0F64840680840082812D1F44829
:10134000406801210904084088420BD1F048006838
:1013500001214904084000286BD06068002868D14A
:101360000120F8BD00BF6068012807D1E848006887
:10137000012109040843E649086031E0606800285B
:101380000ED1E3480068012109048843E049086060
:1013900008460068012189048843DD4908601FE090
:1013A000606805280ED1DA480068012189040843E5
:1013B000D749086008460068012109040843D44958
:1013C00008600DE0D2480068012109048843D04933
:1013D000086008460068012189048843CC490860F8
:1013E00000BF6068002812D0FFF7A8FD054606E0A0
:1013F000FFF7A4FD401B642801D90320B1E7C448CE
:1014000000680121490408400028F1D011E0FFF7ED
:1014100095FD054606E0FFF791FD401B642801D9C4
:1014200003209EE7BA4800680121490408400028CB
:10143000F1D1022120680840022861D1B4484068F7
:101440000C21084000280BD0B1484068084008280B
:101450001BD1AF484068012109040840002814D17D
:10146000AB48006802210840002804D0E068012849
:1014700001D0012075E7A6480068F821884321695A
:10148000C9000843A24908603AE0E068002820D07B
:101490009F480068012108439D490860FFF74EFD01
:1014A000054606E0FFF74AFD401B022801D903204C
:1014B00057E797480068022108400028F2D0944876
:1014C0000068F82188432169C900084390490860F1
:1014D00016E08F480068400840008D490860FFF71B
:1014E0002DFD054606E0FFF729FD401B022801D926
:1014F000032036E786480068022108400028F2D120
:10150000082120680840082831D1E069002817D058
:101510007F48406A012108437D494862FFF70EFD7C
:10152000054606E0FFF70AFD401B022801D903200B
:1015300017E77748406A022108400028F2D016E0F9
:101540007348406A4008400071494862FFF7F6FC62
:10155000054606E0FFF7F2FC401B022801D90320F4
:10156000FFE66B48406A022108400028F2D10421BE
:1015700020680840042871D100266548C0698906A2
:10158000084000280DD100BF6148C0690843604988
:10159000C8610846C06909040840009000BF00BF48
:1015A00001265C480068FF2101310840002816D15F
:1015B00058480068084357490860FFF7BFFC0546D4
:1015C00006E0FFF7BBFC401B642801D90320C8E6F6
:1015D00050480068FF21013108400028F1D000BFC9
:1015E000A068012806D14A48006A012108434849F9
:1015F00008622BE0A06800280CD14548006A40082A
:101600004000434908620846006A04218843404973
:1016100008621BE0A06805280CD13D48006A04213F
:1016200008433B4908620846006A012108433849DB
:1016300008620BE03648006A4008400034490862FE
:101640000846006A042188433149086200BFA06847
:10165000002813D0FFF772FC054608E029E0FFF7E9
:101660006DFC401B2C49884201D9032079E62848AB
:10167000006A022108400028F1D011E0FFF75EFC6B
:10168000054607E0FFF75AFC401B2349884201D971
:10169000032066E61E48006A022108400028F1D1B6
:1016A000012E05D11A48C069310788431849C8611D
:1016B00000BF10212068084010285FD16069012810
:1016C0002CD11348406B0421084311494863084654
:1016D000406B012108430E494863FFF72FFC054684
:1016E00006E0FFF72BFC401B022801D9032038E657
:1016F0000748406B022108400028F2D00448406BA4
:10170000F8218843A169C90008430149486335E0CD
:101710000010024000700040881300006069401D06
:1017200000280FD14E48406B042188434C49486340
:101730000846406BF8218843A169C900084348491D
:1017400048631BE04648406B042108434449486312
:101750000846406B400840004863FFF7EFFB054632
:1017600006E0FFF7EBFB401B022801D90320F8E558
:101770003B48406B022108400028F2D1206A002833
:101780006CD0374840680C210840082864D0206A93
:10179000022847D1324800680121090688433049B0
:1017A0000860FFF7CBFB054606E0FFF7C7FB401BD1
:1017B000022801D90320D4E52948006801214906FF
:1017C00008400028F1D100BF2548C06A0009000187
:1017D000E16A08432249C862616AA06A0843204955
:1017E00049683D221204914308431D49486000BFE7
:1017F0000846006801210906084319490860FFF7F7
:101800009DFB054606E0FFF799FB401B022801D926
:101810000320A6E512480068012149060840002877
:10182000F1D01BE00E4800680121090688430C49ED
:101830000860FFF783FB054606E0FFF77FFB401BD0
:10184000022801D903208CE50548006801214906DA
:1018500008400028F1D101E0012082E5002080E568
:101860000010024010B504460D48006901214904EA
:1018700008430B490861084600690121490488436F
:101880000749086104210920C006FFF7B5F90821BE
:101890000920C006FFF7B0F91C20FFF7D7FB10BDE9
:1018A0000010024010B586B0044600BF26484069CB
:1018B000012149040843244948610846406901213F
:1018C00049040840009000BF00BF00BF1E484069A7
:1018D00008431D4948610846406901214904084000
:1018E000009000BF00BF00BF1748C06908431649F9
:1018F000C8610846C069012149040840009000BF42
:1019000000BF0420019002200290012003900320D8
:1019100004900120059001A90920C006FFF70CFAE8
:10192000082001900120059001A90920C006FFF7B9
:1019300003FA022200211C20FFF7A0FB1C20FFF766
:1019400091FB06B010BD00000010024070B50446C7
:101950002546681E0949884201D901200CE0681E0D
:10196000074948610321081F00F03AFE002004499E
:10197000886107200861002070BD0000FFFFFF00A4
:1019800000E000E010B50446002C01D1012010BD9C
:101990002421692001552068006840084000216822
:1019A000086000202168086021684860216888601C
:1019B0000B492068884203D12046FFF753FF02E01D
:1019C000204600F027F90020E0660021692001553B
:1019D0006A20015500BF6820015500BF0020D6E7EE
:1019E00000440040FFF7C2F8F8B504462068C56916
:1019F000206806682807000F0090009800280BD187
:101A000020202840002807D020203040002803D084
:101A1000204601F02BFDF8BD20688768009800285B
:101A20007ED0F807C00F002804D1FF2021303040BD
:101A30000028F5D0E807C00F00280BD0FF200130A8
:101A40003040002806D0012021680862E06E0121A4
:101A50000843E0660220284000280AD0F807C00F9B
:101A6000002806D0022021680862E06E04210843A5
:101A7000E0660420284000280AD0F807C00F00289C
:101A800006D0042021680862E06E02210843E06667
:101A90000820284000280ED020203040002803D104
:101AA000F807C00F002806D0082021680862E06E01
:101AB00008210843E066E06E002841D0202028403D
:101AC000002806D020203040002802D0204601F017
:101AD000CDFCE06E08210840002805D12068806810
:101AE00040210840002826D0204601F09EFC2068B6
:101AF000806840210840002819D020688068884309
:101B000021688860606E00280DD01B48616E4863B4
:101B1000606EFFF737F8002812D0606E416B00E06E
:101B20000FE088470CE02046FFF75CFF08E0204606
:101B3000FFF758FF04E02046FFF754FF0020E0665F
:101B400069E780202840002807D080203040002806
:101B500003D0204601F0DAFD5DE740202840002850
:101B600007D040203040002803D0204601F06EFC12
:101B700051E700BF4FE700001334000810B50446DA
:101B8000002C01D1012010BDA069002800D000E088
:101B900000BF6920005D00280DD10021682001559B
:101BA0001B492068884203D12046FFF77BFE02E0F4
:101BB000204600F051F82421692001552068006872
:101BC0004008400021680860204601F0ADFC012873
:101BD00000D1D8E7606A002802D0204601F092FBCD
:101BE000206840680121C902884321684860206854
:101BF0008068082188432168886020680068012186
:101C0000084321680860204601F0F4FBBBE70000B0
:101C10000044004010B504460E48C0680121890305
:101C200008430C49C8600846C068012189038843FD
:101C30000849C86049150920C006FEF7DDFF0121EB
:101C400089020920C006FEF7D7FF1B20FFF7FEF927
:101C500010BD00000010024010B586B0044600BF61
:101C6000274840690121490408432549486108463D
:101C70004069012149040840009000BF00BF00BF37
:101C80001F48406908431E494861084640690121D0
:101C900049040840009000BF00BF00BF1848806999
:101CA000C9100843164988610846806901218903E3
:101CB0000840009000BF00BF481101900220029030
:101CC00001200390032004900120059001A9092020
:101CD000C006FFF731F80120800201900120059035
:101CE00001A90920C006FFF727F8012200211B20C7
:101CF000FFF7C4F91B20FFF7B5F906B010BD0000CF
:101D00000010024010B503466A20C05C20285AD15A
:101D1000002901D0002A01D1012010BD0124240393
:101D20009868A04208D11869002805D1C807C00FDB
:101D3000002801D00120F0E700BF6820C05C012826
:101D400001D10220E9E701246820C45400BF59658D
:101D50005820C2525A20C25200BF24039868A042A1
:101D60000AD11869002803D1184C5C20C45210E035
:101D7000FF245C20C4520CE09868002809D118693F
:101D8000002803D1FF245C20C45202E07F245C20A1
:101D9000C45200BF0020D86622246A20C45400BF69
:101DA00000246820C45400BF1868806801242043C0
:101DB0001C68A06018680068FF24213420431C6858
:101DC00020600020A9E70220A7E70000FF01000033
:101DD00010B5044601200649087006480078012124
:101DE0000843044908704021034801F0F5F910BD8B
:101DF000300000203800002068030020FEB50446B3
:101E00000D4616461F46002001906920005D2028DF
:101E10006AD1002D01D0002E01D10120FEBD01218B
:101E20000903A068884208D12069002805D1E80785
:101E3000C00F002801D00120F0E700BF6820005D3E
:101E4000012801D10220E9E701216820015500BFE6
:101E50000020E066212169200155FFF76FF801900D
:101E6000502006535220065325E05220005B401EAE
:101E700081B2522001530097002280212046019B0D
:101E800001F07DFC002801D00320C7E701210903F0
:101E9000A06888420BD12069002808D10295029DD4
:101EA0002888C005C00D21680885AD1C03E028788E
:101EB0006D1C216808855220005B0028D5DC009746
:101EC000002240212046019B01F059FC002801D04E
:101ED0000320A3E720216920015500BF00216820CD
:101EE000015500BF002099E7022097E70121014A30
:101EF000117070473000002000BFFEE710B50348A6
:101F0000FFF764F80148FFF721F810BD6C020020CC
:101F100070B505466C6A206840680121C903084312
:101F2000216848600020A16B4863E16B4863412051
:101F3000005D602806D12021412001552046FFF791
:101F400003F802E02046FFF750F870BD10B50346D5
:101F50000A460021D007C00F002809D042200143C3
:101F60004120C05C28242040282801D0B020014313
:101F700002201040022809D1442001434120C05CC6
:101F800028242040282801D0B020014304201040FC
:101F9000042801D1B820014311201040112801D19B
:101FA0009020014312201040122801D1202001432B
:101FB00012201040122801D1402001431868006807
:101FC00088431C682060002010BD016889690222D6
:101FD00011404908002902D000210268916201687D
:101FE0008969C907C90F012251405140002904D114
:101FF000016889691143026891617047F8B5044628
:10200000002700250026002000904120005D2821A7
:102010000840282854D1206880690121090408401B
:10202000070C206880697F2149040840050C20685E
:1020300080688605B60D2068C068FE2108400090C3
:10204000E06802282DD106202840F1110622114017
:10205000884216D13546A06C401CA064A06C0228B2
:1020600036D10020A06408202168C86100BF00218B
:102070004020015500BF2A4639462046FEF765FF3D
:1020800026E0009D04212046FFF760FF00BF0021ED
:102090004020015500BF2A4639462046FEF755FF2D
:1020A00016E004212046FFF751FF00BF0021402029
:1020B000015500BF2A4639462046FEF746FF07E095
:1020C00008202168C86100BF00214020015500BFE1
:1020D000F8BD000070B504460D46002142200155B0
:1020E0003F48E06200206085606C284360644120C6
:1020F000005D282807D04120005D292803D0412019
:10210000005D2A280BD103212046FFF71FFF28215D
:102110004120015500202063324860630DE0072113
:102120002046FFF713FF4120005D602802D02021E8
:102130004120015500202063606320680068012170
:1021400089030840884215D12068006888432168C7
:1021500008602548A16B486300BF0021402001555D
:1021600000BFA06BFEF70EFD002838D0A06B416BBE
:10217000884734E0206800680121C903084088428C
:1021800015D1206800688843216808601648E16B13
:10219000486300BF00214020015500BFE06BFEF7FF
:1021A000F1FC00281BD0E06B416B884717E0412011
:1021B000005D60280BD120214120015500BF002186
:1021C0004020015500BF2046FEF7BEFE07E000BFDD
:1021D00000214020015500BF2046FEF706FF70BDDC
:1021E0000000FFFF01240008111F000870B504461D
:1021F0000D461A48E062002020632021412001554D
:10220000002142200155002060630420284000285E
:1022100013D02068406AC1B2626A501C60621170BB
:10222000208D002809D0208D401E2085608D401E05
:102230006085606C04210843606407212046FFF735
:1022400085FE10202168C86100BF00214020015593
:1022500000BF2046FEF7CAFE70BD00000000FFFF71
:1022600070B504460D4620202168C8610820216809
:10227000C86107212046FFF769FE206840680121F8
:10228000C903084321684860206840684149084004
:10229000216848602046FFF798FE20680068012109
:1022A00089030840884205D020680068490008403A
:1022B00088420BD14120005D212803D1A06B00682A
:1022C000406802E0E06B006840686085608D00282F
:1022D00003D0606C04210843606404202840002877
:1022E00013D02068406AC1B2626A501C60621170EB
:1022F000208D002809D0208D401E2085608D401E35
:102300006085606C04210843606400202063002124
:102310004220015500206063606C00280CD0616C85
:102320002046FFF7D7FE4120005D282831D12946FD
:102330002046FFF75BFF2CE0E06A174988420DD08A
:102340000846E06220214120015500BF00214020C5
:10235000015500BF2046FEF749FE1AE04120005D0E
:1023600022280BD120214120015500BF002140200F
:10237000015500BF2046FEF73AFE0AE02021412029
:10238000015500BF00214020015500BF2046FEF747
:102390002FFE70BD00E800FE0000FFFF10B50446F0
:1023A0000021422001554120005D292811D128211A
:1023B000412001552120206301212046FFF7C6FD61
:1023C00000BF00214020015500BF2046FEF710FE4F
:1023D00014E04120005D2A2810D128214120015518
:1023E0002220206302212046FFF7B0FD00BF00211C
:1023F0004020015500BF2046FEF7F9FD10BD00004A
:1024000070B504460D46164600BF4020005D012809
:1024100001D1022070BD01214020015500BF1020D4
:102420002840002834D010203040002830D0608D63
:10243000002825D1E06A4906884202D0E06A884235
:1024400008D14120005D282804D129462046FFF705
:10245000CDFE70E0E06A414988420DD04120005D28
:10246000292809D110202168C8612046FFF7ADFD59
:102470002046FFF793FF5EE010202168C8615AE014
:1024800010202168C861606C04210843606452E038
:102490000420284000281ED00420304000281AD0F4
:1024A000608D00280CD02068406AC1B2626A501C5E
:1024B00060621170208D401E2085608D401E6085F9
:1024C000608D002837D1E06A2449884233D0204605
:1024D000FFF764FF2FE008202840002808D00820DC
:1024E0003040002804D029462046FFF787FD22E02F
:1024F0000220284000281ED00220304000281AD098
:10250000608D00280CD0616A481C606208782168E0
:102510008862608D401E6085208D401E20850AE007
:10252000E06A01210906884202D0E06A002802D14F
:102530002046FFF733FF20202840002807D0202026
:102540003040002803D029462046FFF789FE00BF0F
:1025500000214020015500BF00205BE70000FFFF85
:1025600010B5012211020A48FEF7E2FC01225102D5
:102570000748FEF7DDFC0022012149020448FEF76E
:10258000D7FC0022FF2101310148FEF7D1FC10BD2C
:102590000004004810B5012211020748FEF7C8FCEC
:1025A0000022012149020448FEF7C2FC0122510227
:1025B0000148FEF7BDFC10BD0004004810B5012223
:1025C00011020548FEF7B4FC0022FF210131024848
:1025D000FEF7AEFC10BD000000040048704700008C
:1025E00010B5002819DA1A4A03071B0F083B9B088D
:1025F0009B00D2588307DC0EFF23A3409A438B072E
:102600001B0E8407E40EA3401A43114B0407240F4A
:10261000083CA408A4001A5118E00E4A03231B0228
:10262000D21883089B00D2588307DC0EFF23A340F7
:102630009A438B071B0E8407E40EA3401A43054BF5
:10264000032424021B198408A4001A5110BD0000A1
:102650001CED00E000E100E070B5002418E0204629
:10266000B030002100F07FF90021084600F07BF92E
:102670000021102000F077F9002505E0012100205D
:1026800000F071F9681CC5B2802DF7DB601CC4B284
:10269000082CE4DB70BD000000B587B000BF4B48DC
:1026A0004069012189040843484948610846406956
:1026B000012189040840019000BF00BF03200002EF
:1026C00002900120039004900320059002A9404845
:1026D000FEF732FB012211023D48FEF729FC0122E0
:1026E00051023B48FEF724FC1920400101F0E7F8B5
:1026F0000021AE2000F037F90021084600F033F940
:102700000021102000F02FF90021402000F02BF9CB
:102710000021B02000F027F90021812000F023F9EA
:102720000021FF2000F01FF90021A12000F01BF97B
:102730000021A62000F017F90021A82000F013F9CD
:1027400000213F2000F00FF90021C82000F00BF914
:102750000021D32000F007F90021084600F003F91A
:102760000021D52000F0FFF80021802000F0FBF8C8
:102770000021D82000F0F7F80021052000F0F3F840
:102780000021D92000F0EFF80021F12000F0EBF853
:102790000021DA2000F0E7F80021122000F0E3F831
:1027A0000021DB2000F0DFF80021302000F0DBF812
:1027B00000218D2000F0D7F80021142000F0D3F87C
:1027C0000021AF2000F0CFF807B000BD001002409C
:1027D0000004004870B504460D462846B03000217C
:1027E00000F0C1F8F0212140091108461030002105
:1027F00000F0B9F82007000F002100F0B4F870BD18
:10280000FFB581B007460D46002600240398203806
:10281000C6B27F2F02DD0027A81CC5B2049810287D
:1028200024D129463846FFF7D5FF002408E03101BE
:102830000919184A505C012100F095F8601CC4B2D7
:10284000082CF4DB681CC1B23846FFF7C3FF002434
:1028500009E03101091908310E4A505C012100F0EC
:1028600082F8601CC4B2082CF3DB11E0294638461C
:10287000FFF7B0FF002409E006217143064A8918DA
:10288000085D012100F06FF8601CC4B2062CF3DB78
:1028900005B0F0BD363C00080E3A0008FFB583B025
:1028A0001E460C9C0020029000253CE0701B401E40
:1028B000C1B20A2001F084F8014600900598FDF7A6
:1028C000B7FC0A210190FDF7B3FC0F4602980028DF
:1028D00015D1701EA84212DD002F0ED1E00F001995
:1028E00040106843019403994018C0B22346202247
:1028F00000900499FFF784FF13E001200290E00F9D
:10290000001940106843019403994018C0B2009028
:1029100038463030C2B2234604990098FFF770FF62
:1029200000BF681CC5B2B542C0DB07B0F0BDFFB543
:1029300081B004460F46154600260FE0AA5D3946D1
:102940002046049BFFF75CFF20460830C4B2782C79
:1029500002DD0024B81CC7B2701CC6B2A85D0028F6
:10296000ECD105B0F0BD70B504460D46002D03D086
:10297000E0B200F08BFF02E0E0B200F071FF70BD4A
:1029800010B5102302A200210846FFF7D0FF10BDAA
:10299000504843524300000010B50748007880219A
:1029A0000840002807D000F0DFFA034800788021B3
:1029B00088430149087010BD3A00002070B5002519
:1029C000002489480078802188430546874800789C
:1029D000002801D000F0BCFA84484078032801D0D8
:1029E00000F0B6FA042D5DD004DC012D07D0022DD5
:1029F0007ED12DE0082D7CD0102DF9D1B6E07B489A
:102A000040790002794989790843044677488078FB
:102A1000022801D000F09CFA05217448FDF77EFDE4
:102A2000A04201D0FFF7ACFF7048C07800026F49A8
:102A3000097908436E4908806B48007880218843F3
:102A40006949087008460078400840000870C6E0F0
:102A5000664840790002654989790843044663481D
:102A60008078022801D000F073FA05215F48FDF755
:102A700055FDA04201D0FFF783FF5C48C0780002FB
:102A80005A49097908435B490880574800788021F2
:102A90008843554908700846007802218843524906
:102AA00008709CE05148C07900025049097A0843F7
:102AB00004464E488078042801D000F049FA0721E6
:102AC0004A48FDF72BFDA04201D0FFF759FF4748C8
:102AD000C0780002454909790843454908804348C0
:102AE000407900024149897908434249088001E060
:102AF00074E011E03C480078802188433A4908702E
:102B00000846007840084000087008460078022116
:102B100088433549087062E03448407900023349FF
:102B200089790843044631488078022801D000F0B2
:102B30000FFA05212D48FDF7F1FCA04201D0FFF767
:102B40001FFF2A48C07800022849097908432A490A
:102B5000088025480078802188432349087008466A
:102B60000078082188432049087038E01F48C07960
:102B700000021E49097A084304461C48807804284C
:102B800001D000F0E5F907211848FDF7C7FCA04285
:102B900001D0FFF7F5FE1548C07800021349097906
:102BA0000843144908801148407900020F49897987
:102BB0000843114908800C480078802188430A495D
:102BC00008700846007808218843074908700846BD
:102BD0000078022188430449087000E000BF00BF6C
:102BE00000200149087070BD3A00002068040020F0
:102BF00046000020480000204A00002038B510237D
:102C000056A200210846FFF792FE0F2355A202218B
:102C10000020FFF78CFE0F2354A202212B20FFF788
:102C200086FE0F2352A202215620FFF780FE0F23BB
:102C300050A203210020FFF77AFE0F234EA20421A9
:102C40000020FFF774FE0F234CA205210020FFF7A0
:102C50006EFE102002230090494802880021562071
:102C6000FFF71CFE642147480088FDF7EBFA044695
:102C70000F2002232246032100902B20FFF70EFE97
:102C80000F2341A203213820FFF751FE64213D4864
:102C90000088FDF7D7FA0D460A212846FDF7D2FA3B
:102CA00004460F2001232246032100903D20FFF718
:102CB000F5FD0A2133480088FDF7C4FA0C460F20C1
:102CC00001232246032100904320FFF7E7FD0A215C
:102CD0002E480088FDF7B6FA04460F20022322464C
:102CE000042100902B20FFF7D9FD0F2326A20421F9
:102CF0003820FFF71CFE0A2124480088FDF7A2FABD
:102D00000C460F2001232246042100903D20FFF7AE
:102D1000C5FD0F20042300901D48028805212B20AB
:102D2000FFF7BCFD0F20042300901A4802880321FE
:102D30005620FFF7B3FD0F200423009016480288A9
:102D400019465620FFF7AAFD0F20042300901348D0
:102D5000028805215620FFF7A1FD38BD50484D657A
:102D6000746572004954454D0000000056414C0006
:102D70005448520020504800202054004F52500028
:102D800052000020460000202E00000048000020D5
:102D90004A0000204C0000204E000020500000207F
:102DA000F8B50024002500265D480078802188437E
:102DB00004465C48C07800025A4909790843054630
:102DC00003215848FDF7AAFB0646B54202D0FFF79B
:102DD000D7FDF8BD53480078002801D000F0B8F8BE
:102DE00050484078802188434F4908704D48C0784A
:102DF0004E490870FFF730FC10234DA20021084611
:102E0000FFF795FD10234CA200215620FFF78FFD00
:102E10000F234BA203210020FFF789FD0F234AA2B5
:102E200004210020FFF783FD0F20042300903E487B
:102E3000027803212B20FFF731FD0F20042300909F
:102E40003A48027819462B20FFF728FD042C27D09A
:102E500004DC012C07D0022C5AD112E0082C33D00C
:102E6000102C55D13FE02E480078802188432C4912
:102E700008700846007840084000087000F0CCF860
:102E800047E0274800788021884325490870084694
:102E90000078022188432249087000F0E9F838E000
:102EA0001F480078802188431D4908700846007833
:102EB00040084000087008460078022188431849FD
:102EC000087000F0BFF824E015480078802188439E
:102ED0001349087008460078082188431049087093
:102EE00000F06AF815E00E480078802188430C490C
:102EF0000870084600780821884309490870084688
:102F00000078022188430649087000F06DF800E05F
:102F100000BF00BF00200249087000BF59E7000051
:102F20003A000020680400204300002044000020F4
:102F300050484D65746572004572726F72000000F2
:102F40002020457272464300457272434F4445004B
:102F500010B5102302A200210846FFF7E8FC10BDBF
:102F6000504845525200000010B506484078802174
:102F70000840002802D0FFF713FF01E0FFF71EFD15
:102F800010BD00006804002010B50024002009498D
:102F900008700320487006210648FDF7BFFA044672
:102FA000201204498871CC710821024800F024F9EC
:102FB00010BD00003B00002010B502200849C87079
:102FC00000208870012048710020087105480078B1
:102FD0000821084303490870FFF7D6FF10BD000021
:102FE0003B0000203A00002010B501200849C870BD
:102FF0000020887002204871002008710548007880
:103000001021084303490870FFF7BEFF10BD000000
:103010003B0000203A00002010B500200749C8708E
:10302000887001204871002008710548007801214E
:10303000084303490870FFF7A7FF10BD3B000020BD
:103040003A00002010B500200749C870887002209F
:10305000487100200871054800780421084303499D
:103060000870FFF791FF10BD3B0000203A000020E0
:1030700010B501200849C8700020887001204871EF
:1030800000200871054800780221084303490870B0
:10309000FFF77AFF10BD00003B0000203A0000203F
:1030A0007047000010B500242048007800283BD06D
:1030B00040221F491F48FDF741F840221E491C4885
:1030C000FDF73CF819480078C007C00F002825D04C
:1030D00018480478002C02D0032C18D10BE00922E8
:1030E00014491648FDF763F8154800788021084315
:1030F000134908700CE011220E491248FDF757F8E9
:1031000011480078802108430F49087000E000BF93
:1031100000BF402208490748FDF710F8034800782F
:10312000400840000149087010BD00003800002030
:1031300068030020E8030020A803002068040020A2
:103140003A000020800400205402002010B586B010
:10315000044600BF1D4840690121490408431B493A
:10316000486108464069012149040840009000BFB9
:1031700000BF022001900120029000200390032054
:10318000049001A90920C006FDF7D6FD1048114999
:1031900008600846446000218160C160016181616E
:1031A0000C21416100200B4948620846FEF7EAFB0A
:1031B000002801D0FDF7DAFC0648FEF7DFFC002806
:1031C00001D0FDF7D3FC06B010BD00000010024096
:1031D00000440040B802002070B504460D4601E0EE
:1031E000FDF7C4FC2A4621460248FEF78BFD002865
:1031F000F6D170BDB802002070B504460D4601221C
:1032000002210920C006FDF793FE7D23DB002A463C
:1032100021460848FEF7F2FD002801D0FDF7A6FC84
:10322000002005490870002202210920C006FDF790
:103230007FFE70BDB802002030000020704710B53E
:10324000FDF7D8FE10BD00B591B00020019002201E
:10325000099000210A910C910521C9040B9101A844
:10326000FEF75AF8002801D0FDF77EFC07200D90EC
:1032700002200E9000200F90109001210DA8FDF764
:1032800007FF002801D0FDF76FFC11B000BD000062
:10329000194800680121084317490860084640683A
:1032A0001649084014494860084600681449084017
:1032B00011490860084600680121890488430E49C5
:1032C0000860084640683F21090488430A4948606D
:1032D0000846C06A00090001C8620846006BFF2169
:1032E00014318843044908630846406B4008400095
:1032F0004863002088607047001002400CB8FF0847
:10330000FFFFF6FE818CC907C90F002908D00168AC
:103310004968012252049143826A11430268516054
:103320000222416A1140002907D001684968D2038E
:103330009143C26A1143026851600422416A1140FC
:10334000002907D00168496812049143026B1143B8
:10335000026851600822416A1140002907D00168C3
:10336000496812039143426B114302685160102275
:10337000416A1140002907D001688968120291430F
:10338000826B1143026891602022416A114000293A
:1033900007D00168896812029143C26B1143026829
:1033A00091604022416A1140002915D001684968A6
:1033B00092039143026C114302685160012212058D
:1033C000016C914208D1016849680322520591437A
:1033D000426C1143026851608022416A1140002909
:1033E00007D00168496812039143826C1143026857
:1033F0005160704701460020C8662022692042546F
:103400006A20425400BF00226820425400BF0020BE
:10341000704770B505466C6A00215A20015352204E
:1034200001532046FEF7DEFA70BD01680968FF22ED
:103430002132914302681160016889684908490096
:103440000268916020226A210A54704710B5044630
:103450002068006840218843216808602021692095
:1034600001552046FEF742FD002010BDF8B5044688
:103470005C20075B6A20005D22284AD12068858C89
:1034800001210903A06888420AD12069002807D1D8
:10349000666D284638403080606D801C606505E0B0
:1034A000F8B22840626D511C616510705A20005BB3
:1034B000401E81B25A200153002913D0606D20387C
:1034C000C07F0A2804D1606D2038807F0D2809D084
:1034D0005820015B5A20005B091A12488078401D71
:1034E000814214D120680068FF212131884321687E
:1034F00008602068806840084000216888602021BA
:103500006A2001552046FEF763FC0020F8BD00202C
:10351000FCE720688069082108432168886102204F
:10352000F4E7000068030020FEB5044600251026DD
:1035300000270020029001902169A068084361697A
:103540000843E16908430546206800686849084067
:1035500028432168086020684068032109038843E4
:10356000E168084321684860216AA069084305466C
:10357000206880680B2109028843284321688860FD
:1035800000BF5C492068884217D15B48006B800708
:10359000800F002806D0012808D0022808D0032870
:1035A00008D101E0002607E0022605E0042603E03A
:1035B000082601E0102600BF06E050492068884236
:1035C00001D1002600E0102600BF0121C903E069F7
:1035D000884249D1042E20D004DC002E07D0022ED0
:1035E00032D111E0082E25D0102E2DD12DE0FDF77F
:1035F0001FFE400061684908401800906168FCF7B0
:1036000017FE80B2029023E061684A083C4BD01854
:10361000FCF70EFE80B202901AE0FDF71BFE4000A0
:1036200061684908401800906168FCF701FE80B2AB
:1036300002900DE061684A0801231B04D018FCF7D2
:10364000F7FD80B2029003E000BF0120019000BFAF
:1036500000BF2C4902980840074602980007400F17
:1036600007432068C76040E0042E21D004DC002E10
:1036700007D0022E34D111E0082E26D0102E2FD1E3
:103680002FE0FDF7D5FD616849084018009061689A
:10369000FCF7CEFD80B22168C86025E061684A0869
:1036A000194BD018FCF7C4FD80B22168C8601BE03C
:1036B000FDF7D0FD61684908401800906168FCF78B
:1036C000B7FD80B22168C8600EE061684A08012336
:1036D000DB03D018FCF7ACFD80B22168C86003E0C2
:1036E00000BF0120019000BF00BF0198FEBD000097
:1036F000F369FFFF00380140001002400044004021
:103700000024F400F0FF000000127A000146692056
:10371000405C212831D15220405A00280DD1086840
:103720000068802398430B6818600868006840238D
:1037300018430B6818600020704701231B0388683A
:1037400098420CD10869002809D1CA6C1088C005BC
:10375000C00D0B681885C86C801CC86405E0CB6C74
:10376000581CC86418780B6818855220405A401EAF
:1037700083B2522043520020DEE70220DCE7FFB58F
:1037800081B004460D4617460A9E24E0701C0028AE
:1037900021D0002E05D0FDF7D1FB0499401AB0428C
:1037A00019D920680068FF21A13188432168086089
:1037B00020688068400840002168886020216920D6
:1037C00001556A20015500BF00216820015500BF46
:1037D000032005B0F0BD2068C0692840A84201D18F
:1037E000012000E00020B842D0D00020F1E7000026
:1037F00010B50248FEF7F8F810BD0000B80200202E
:10380000F8B505462C460022FF2101311348FDF78B
:103810008FFB00261FE0274680200740802F05D120
:10382000012281000D48FDF783FB05E00022012104
:1038300049020A48FDF77CFB6006040E01221102D2
:103840000648FDF775FB0022FF2101310348FDF713
:103850006FFB701CC6B2082EDDDBF8BD000400480B
:1038600010B50446FEF77CFE7820FFF7C9FFFEF78F
:10387000A5FE0020FFF7C4FFFEF7A0FE2046FFF7DD
:10388000BFFFFEF79BFEFEF785FE10BD10B5044698
:10389000FEF766FE7820FFF7B3FFFEF78FFE4020AD
:1038A000FFF7AEFFFEF78AFE2046FFF7A9FFFEF7FF
:1038B00085FEFEF76FFE10BD014600BF704710B5D4
:1038C00004462046FDF78AF910BD00000024FF25BC
:1038D000FDF798FBFFF7B7FC4B20C001FFF736FC64
:1038E000FEF7DAFE0020FCF7A9FD0120FCF7A6FD9B
:1038F0000220FCF7A3FDFEF7AFFEFCF7D5FE40214A
:103900002D48FFF769FC56E029462046FCF79AFC53
:10391000002906D1FDF7C6F87D208001FDF75EF98C
:1039200025E029462046FCF78DFC0A2906D1FFF741
:103930009FFB7D20C000FDF751F918E02946204685
:10394000FCF780FC142906D1FFF736FB7D20C00070
:10395000FDF744F90BE029462046FCF773FC642987
:1039600005D1FFF759FB7D20C000FDF737F9642131
:103970002046FCF767FC002904D1FEF76DFEFFF737
:103980003DF909E064212046FCF75CFC322903D1B3
:10399000FEF762FEFCF788FEFFF784FBFEF7FCFFF4
:1039A000FCF7E4FD40210548FDF7BEFA6420FDF771
:1039B00015F9601CC4B2A7E7680300200014004892
:1039C00010B50246012002E00346534318460B4659
:1039D0004C1EE1B2002BF7D110BD0000000000002A
:1039E00000000102030406070809000000000102AC
:1039F00003040001400080000010002000000000CF
:103A00000707000034431010013443101001000078
:103A1000000000000000002F000000000700070069
:103A200000147F147F1400242A7F2A120062640885
:103A30001323003649552250000005030000000002
:103A40001C224100000041221C000014083E081402
:103A50000008083E0808000000A0600000080808F0
:103A60000808000060600000002010080402003E0A
:103A70005149453E0000427F4000004261514946A5
:103A8000002141454B31001814127F100027454595
:103A90004539003C4A4949300001710905030036A7
:103AA0004949493600064949291E000036360000BA
:103AB00000005636000000081422410000141414BF
:103AC00014140000412214080002015109060032BA
:103AD0004959513E007C1211127C007F49494936F8
:103AE000003E41414122007F4141221C007F494963
:103AF0004941007F09090901003E4149497A007F97
:103B00000808087F0000417F4100002040413F013C
:103B1000007F08142241007F40404040007F020C9B
:103B2000027F007F0408107F003E4141413E007F3C
:103B300009090906003E4151215E007F0919294605
:103B40000046494949310001017F0101003F4040E1
:103B5000403F001F2040201F003F4038403F00638F
:103B600014081463000708700807006151494543B1
:103B700000007F41410000552A552A55000041416F
:103B80007F00000402010204004040404040000069
:103B900001020400002054545478007F4844443803
:103BA00000384444442000384444487F003854548A
:103BB000541800087E0901020018A4A4A47C007F08
:103BC000080404780000447D4000004080847D00AB
:103BD000007F102844000000417F4000007C041852
:103BE0000478007C0804047800384444443800FC1D
:103BF000242424180018242418FC007C0804040839
:103C000000485454542000043F444020003C4040AD
:103C1000207C001C2040201C003C4030403C0044E4
:103C200028102844001CA0A0A07C004464544C44EC
:103C3000141414141414000000000000000000000C
:103C4000000000000000000000F80000000000007C
:103C500000333000000000100C06100C06000000BD
:103C600000000000000040C07840C0784000043FE1
:103C700004043F040400007088FC083000000018B1
:103C800020FF211E0000F008F000E01800000021D5
:103C90001C031E211E0000F00888700000001E2179
:103CA00023241927211010160E0000000000000028
:103CB000000000000000000000E018040200000006
:103CC00000071820400000020418E0000000004037
:103CD000201807000000404080F0804040000202B1
:103CE000010F01020200000000F0000000000101CD
:103CF000011F01010100000000000000000080B071
:103D00007000000000000000000000000000000142
:103D1000010101010101000000000000000000306D
:103D20003000000000000000000080601804006007
:103D300018060100000000E010080810E000000F65
:103D4000102020100F00001010F8000000000020CC
:103D5000203F202000000070080808887000003014
:103D600028242221300000300888884830000018BC
:103D7000202020110E000000C02010F800000007D5
:103D80000424243F240000F808888808080000194B
:103D9000212020110E0000E0108888180000000F7C
:103DA000112020110E0000380808C8380800000053
:103DB000003F000000000070880808887000001CA8
:103DC000222121221C0000E010080810E000000061
:103DD000312222110F00000000C0C00000000000CE
:103DE00000303000000000000080000000000000F3
:103DF00080600000000000008040201008000001EA
:103E000002040810200040404040404040000404AC
:103E10000404040404000008102040800000002076
:103E2000100804020100007048080808F0000000B3
:103E3000003036010000C030C828E810E000071844
:103E4000272423140B000000C038E0000000203CB1
:103E500023020227382008F8888888700000203F55
:103E6000202020110E00C03008080808380007186C
:103E700020202010080008F808080810E000203F63
:103E8000202020100F0008F88888E8081000203F44
:103E900020202320180008F88888E8081000203F18
:103EA000200003000000C030080808380000071890
:103EB0002020221E020008F808000008F808203F11
:103EC000210101213F20000808F808080000002017
:103ED000203F2020000000000808F8080800C080EB
:103EE00080807F00000008F888C028180800203F64
:103EF00020012638200008F8080000000000203FBC
:103F000020202020300008F8F800F8F80800203FB2
:103F1000003F003F200008F830C00008F808203FAC
:103F2000200007183F00E01008080810E0000F10FC
:103F3000202020100F0008F808080808F000203F93
:103F4000210101010000E01008080810E0000F182E
:103F5000242438504F0008F8888888887000203F53
:103F60002000030C30200070880808083800003852
:103F7000202121221C00180808F808081800000059
:103F8000203F2000000008F808000008F808001F83
:103F9000202020201F000878880000C83808000072
:103FA00007380E010000F80800F80008F800033C8C
:103FB0000700073C03000818688080681808203054
:103FC0002C03032C30200838C800C8380800000033
:103FD000203F2000000010080808C83808002038DA
:103FE000262120201800000000FE0202020000002E
:103FF000007F40404000000C30C000000000000086
:1040000000010638C00000020202FE00000000406D
:1040100040407F0000000000040202020400000093
:104020000000000000000000000000000000808090
:104030008080808080800002020400000000000078
:104040000000000000000000808080800000001957
:10405000242222223F2008F8008080000000003F38
:10406000112020110E000000008080800000000E52
:10407000112020201100000000808088F800000E30
:10408000112020103F200000808080800000001F51
:10409000222222221300008080F0888888180020C5
:1040A000203F202000000000808080808000006B86
:1040B00094949493600008F8008080800000203F72
:1040C000210000203F200080989800000000002080
:1040D000203F20200000000000809898000000C0D1
:1040E0008080807F000008F8000080808000203FF2
:1040F00024022D302000000808F8000000000020F5
:10410000203F202000008080808080808000203F31
:1041100020003F20003F8080008080800000203F02
:10412000210000203F200000808080800000001FD0
:10413000202020201F00808000808000000080FF61
:10414000A12020110E000000008080808000000E61
:10415000112020A0FF8080808000808080002020AF
:104160003F2120000100000080808080800000331B
:10417000242424241900008080E0808000000000B6
:10418000001F202000008080000000808000001FB1
:10419000202020103F20808080000080808000014F
:1041A0000E300806010080800080008080800F3083
:1041B0000C030C300F000080800080808000002005
:1041C000312E0E3120008080800000808080808130
:1041D0008E701806010000808080808080000021A1
:1041E000302C2221300000000000807C0202000000
:1041F0000000003F404000000000FF000000000001
:104200000000FF0000000002027C8000000000406F
:10421000403F00000000000601010202040400000B
:1042200000000000000000004842000800000020DC
:104230006C020000E4030008844300086C020020C4
:104240008C080000F80000081143127A12485A1432
:10425000045A0404710333E8032808C1814001C0F3
:10426000804104690C2908E918A91C091A300916AB
:1042700038093660092E70092F6000FF00C0C101A7
:10428000C30302C2C60607C705C5C404CC0C0DCDC6
:104290000FCFCE0E0ACACB0BC90908C8D81819D936
:1042A0001BDBDA1A1EDEDF1FDD1D1CDC14D4D51566
:1042B000D71716D6D21213D311D1D010F03031F156
:1042C00033F3F23236F6F737F53534F43CFCFD3D86
:1042D000FF3F3EFEFA3A3BFB39F9F83828E8E92976
:1042E000EB2B2AEAEE2E2FEF2DEDEC2CE42425E526
:1042F00027E7E62622E2E323E12120E0A06061A196
:1043000063A3A26266A6A767A56564A46CACAD6D45
:10431000AF6F6EAEAA6A6BAB69A9A86878B8B979B5
:10432000BB7B7ABABE7E7FBF7DBDBC7CB47475B5E5
:1043300077B7B67672B2B373B17170B050909151D5
:104340009353529296565797559594549C5C5D9D05
:104350005F9F9E5E5A9A9B5B9959589888484989F5
:104360004B8B8A4A4E8E8F4F8D4D4C8C44848545A5
:1043700087474686824243834181800210401BFF6B
:04438000FF04310005
:040000050800017579
:00000001FF
